:100000000C94CF000C94EC000C94EC000C94EC00DD
:100010000C94EC000C94EC000C94EC000C94EC00B0
:100020000C94EC000C9459060C94EC000C94EC002D
:100030000C94EC000C941F060C944F060C94EC00EE
:100040000C94CC050C94EC000C94EC000C94EC009B
:100050000C94EC000C948E060C94EC000C94EC00C8
:100060000C94EC000C94EC00AF01B301B901C00199
:10007000C801D101DB01F302FD02070311031B03D9
:1000800025032F03390343034D03570361036B0318
:1000900075037F03890393039D03A7036E616E00BD
:1000A000696E660000407A10F35A00A0724E18097B
:1000B0000010A5D4E80000E87648170000E40B54CF
:1000C000020000CA9A3B000000E1F505000080969E
:1000D0009800000040420F000000A08601000000D0
:1000E000102700000000E80300000000640000008A
:1000F00000000A00000000000100000000002C7653
:10010000D888DC674F0823DFC1DFAE59E1B1B7966D
:10011000E5E3E453C63AE651997696E8E6C28426CA
:10012000EB898C9B62ED407C6FFCEFBC9C9F40F2A6
:10013000BAA56FA5F490055A2AF75C936B6CF96722
:100140006DC11BFCE0E40D47FEF520E6B500D0EDE7
:10015000902E0300943577050080841E080000204F
:100160004E0A000000C80C333333330F986E1283ED
:100170001141EF8D2114893BE65516CFFEE6DB18C1
:10018000D1844B381BF77C1D901DA4BBE424203286
:1001900084725E228100C9F124ECA1E53D2711247F
:1001A0001FBECFEFD4E0DEBFCDBF11E0A0E0B1E0D5
:1001B000ECE0F0E202C005900D92A630B107D9F74D
:1001C00021E0A6E0B1E001C01D92AC34B207E1F736
:1001D0000E9407040C9404100C94000080914401C8
:1001E000883229F060E070E080E090E404C060E0D4
:1001F00070E080E891E40E9425070895CF92DF9295
:10020000EF92FF9260910E0170910F0180E090E0FB
:100210000E94840C2FE030E54EE65FE30E94E30B82
:100220006B017C01609104017091050180E090E018
:100230000E94840C2FE030E54EE65FE30E94E30B62
:100240000E94550C80E090E00E94840C9B01AC0160
:10025000C701B6010E94710BFF90EF90DF90CF9025
:10026000089590914001292F24602093400120910E
:10027000060120930B01E3E1F1E027E231E0108277
:100280003296E217F307D9F7E1E1F1E014A216A2E2
:10029000813049F018F08230A9F021C010920D0190
:1002A00010923F011CC09F7E94609093400181E0BA
:1002B0008093350190910D0180910B01890F8093FE
:1002C0000D010DC094619093400181E0809337014E
:1002D00090913F0180910B01890F80933F010E9413
:1002E000FB0D66E070E00E943B0D8F5F8093430141
:1002F00008952B9A84E08A95F1F71B9903C02B98F7
:1003000081E00895259A2D9884E08A95F1F71B994C
:1003100004C02B98259882E008952B982C9A84E0AD
:100320008A95F1F71C9904C02C98259883E00895CC
:100330002C98259880E00895A7E2B1E025E331E00C
:100340001C921296A217B307D9F790E0FC013197DF
:10035000E730F105D0F5EC5CFF4F0C944F0D81E0D8
:10036000809327010895E1E1F1E081E0848F80A38B
:100370000895E1E1F1E081E0868B848F80A3089508
:10038000E1E1F1E081E0848F868F80A382A308956C
:10039000E1E1F1E081E0868B848F868F80A382A3E8
:1003A0000895E1E1F1E081E0808F828F848F868F74
:1003B00080A382A30895E1E1F1E081E0868B808F44
:1003C000828F848F868F80A382A30895E7E2F1E075
:1003D00025E331E010823296E217F307D9F7833034
:1003E000D1F028F4813049F0823071F008958530E1
:1003F00001F1C0F0863021F10895E1E1F1E081E002
:10040000868B808F828F0895E1E1F1E081E0868B19
:10041000868F82A30895E1E1F1E081E0868B848FED
:1004200080A30895E1E1F1E081E0868B808F828FE7
:100430000895E1E1F1E081E0868B868F82A3089543
:10044000E1E1F1E081E0868B848F80A30895409103
:1004500041015091420121E030E0082E02C0220FFC
:10046000331F0A94E2F724233523A90102C05695CD
:1004700047958A95E2F7CA01892BC9F0109242018B
:100480001092410180913B010E94E60180913B0165
:100490008F5F80933B0180913B01873040F081E08A
:1004A00080933B018091430181508093430180916F
:1004B0004301811104C080910B010E949C010895A9
:1004C0003F924F925F926F927F928F929F92AF92E4
:1004D000BF92CF92DF92EF92FF920F931F93CF9331
:1004E000DF932B013C0149015A01670178010E9409
:1004F000DE0B88236CF481E080931301E5E1F1E0E9
:1005000087E291E010823296E817F907D9F74EC0DA
:10051000A7019601C301B2010E94360D18166CF4B2
:1005200081E080932501E3E1F1E085E291E0108232
:100530003296E817F907D9F739C0A5019401C70128
:10054000B6010E94710B20E030E040E151E40E94CE
:10055000E30B6B017C01C3E1D1E007E211E033243E
:100560003394A5019401C301B2010E94360D1816FF
:1005700084F4A5019401C701B6010E94720B9B018E
:10058000AC01C301B2010E94DE0B882314F438824F
:1005900001C01882A7019601C501B4010E94720B27
:1005A0004B015C012296C017D107D9F6DF91CF919C
:1005B0001F910F91FF90EF90DF90CF90BF90AF9081
:1005C0009F908F907F906F905F904F903F90089595
:1005D00090E0FC013197E331F10508F0C2C0E55C21
:1005E000FF4F0C944F0D229A2198209857985E9AAD
:1005F0005D985C985B985A980895229A2198209863
:1006000057985E985D9A5C985B985A980895229ADC
:100610002198209857985E985D985C9A5B985A98B4
:100620000895229A2198209857985E985D985C9832
:100630005B9A5A980895229A2198209857985E9824
:100640005D985C985B985A9A08952298219A209810
:1006500057985E9A5D985C985B985A98089522988E
:10066000219A209857985E985D9A5C985B985A9862
:1006700008952298219A209857985E985D985C9AE0
:100680005B985A9808952298219A209857985E98D6
:100690005D985C985B9A5A9808952298219A2098C0
:1006A00057985E985D985C985B985A9A089522983E
:1006B0002198209A57985E9A5D985C985B985A9812
:1006C000089522982198209A57985E985D9A5C9890
:1006D0005B985A98089522982198209A57985E9886
:1006E0005D985C9A5B985A98089522982198209A70
:1006F00057985E985D985C985B9A5A9808952298EE
:100700002198209A57985E985D985C985B985A9AC1
:100710000895229821982098579A5E9A5D985C983F
:100720005B985A980895229821982098579A5E9835
:100730005D9A5C985B985A98089522982198209821
:10074000579A5E985D985C9A5B985A98089522989B
:1007500021982098579A5E985D985C985B9A5A9871
:10076000089522982198209857985E985D985C98F3
:100770005B985A98089587E084B915B880E287B9E4
:1007800080E188B98CE78AB91BB8089591E095BDDE
:1007900090936E00882321F083E08093810003C052
:1007A00085E08093810081E080936F0097E09093D3
:1007B000B10080937000089590E190937A008823AF
:1007C00039F088EC80937C008EE880937A0008955D
:1007D00082E680937C0086E880937A000895CF9328
:1007E00080E00E94DC03EAE7F0E08081806480839F
:1007F0008FE697E10197F1F700C00000C091790002
:10080000108281E00E94DC038C2FCF9108958FE04D
:100810008093100110923B010E94BB0381E00E9473
:10082000FE06789481E08093130181E090E00E94BD
:10083000870F9C01295C31092539310520F49093FB
:100840000501809304010E94EF03803F78F48091BA
:10085000400180688093400180913D0184608093D5
:100860003D0181E00E94C603612C20C00E94050763
:10087000682E90913D0181E092FF80E00E94C603C6
:100880006620A1F084E491E00E949307882369F038
:1008900080914401883219F40E94B80707C0662489
:1008A0006394803119F0612C01C0612C772473941A
:1008B000C9E3D1E0472C0F2EFAE7CF2ED12CF02D33
:1008C0000F2EF1E1AF2EF1E0BF2EF02D0F2EFEE145
:1008D0005F2EF02D0F2EF7E28F2EF1E09F2EF02DE0
:1008E0008091400186FF83C0349981C090913D0181
:1008F00091FD7DC0382F3F7B3093400192FF0FC0A8
:100900009B7F90933D01609104017091050181E00E
:1009100090E00E948D0F80E00E94C60368C0209185
:100920003C01223001F128F4222351F0213099F0CA
:100930005EC02430D9F1F0F0263009F44EC057C023
:10094000837B80934001E3E1F1E010823296CE1781
:10095000DF07D9F74CC08D7B84608093400180E035
:100960000E94310144C036603093400180E00E9413
:1009700031013DC0926090933D01982F9D7B946022
:100980009093400184FF09C0842D0E943101809121
:1009900040018F7E809340012AC082E00E94310195
:1009A0008091400180618093400121C03660309386
:1009B000400184FF09C0842D0E94310180914001D3
:1009C0008F7E8093400113C082E00E9431018091AC
:1009D00040018061809340010AC03C603093400137
:1009E000E3E1F1E070823296CE17DF07D9F780910C
:1009F00040018823CCF48F7780934001662081F0FA
:100A00000E94EE0060930701709308018093090132
:100A100090930A0180913D01816080933D0104C063
:100A2000F6018081806480838091400182FF0DC047
:100A300083FDACC0886080934001E1E1F1E0108269
:100A40003296E815F905D9F735C080913D0180FF50
:100A500031C0982F9E7F90933D0182FF14C00E9469
:100A6000EF03589E90011124A1E8B0E80E94550DB3
:100A7000880F892F881F990B9195885E9E4F9093C0
:100A8000050180930401662049F06091070170918F
:100A900008018091090190910A0102C00E94FE00A4
:100AA000E12CF12C00EF11E420E030E040E451E4CF
:100AB0000E9460028091430181115FC080914001DA
:100AC00083FF5BC090913C01933008F456C084FFD3
:100AD0002BC080913F018B30E8F080913F0190E086
:100AE0000A97181619060CF048C081E090E041E022
:100AF000880F991FFC01EF5EFE4F70824F5F842FBD
:100B000090E020913F0130E02A5031092817390741
:100B10007CF733C080913E0184FF03C0F5017282EF
:100B20002CC0F501128229C080910D018B30E0F0BC
:100B300080910D0190E00A9718161906F4F481E0EF
:100B400090E041E0880F991FFC01EF5EFE4F70823C
:100B50004F5F842F90E020910D0130E02A50310941
:100B6000281739077CF709C080913E0184FF03C034
:100B7000F501728202C0F50112828091430188233F
:100B800009F4AECE83E00E942702AACE90914301E1
:100B9000992309F497CFF1CF1F920F920FB60F92BE
:100BA00011242F933F934F935F936F937F938F9372
:100BB0009F93AF93BF93EF93FF9380913A01E82FF8
:100BC000F0E0EE0FFF1FEF5EFE4F9081992339F0AA
:100BD00090913901911103C00E94E80203C080E0A6
:100BE0000E94E802809139018F5F8093390190E083
:100BF0004091100121E130E0241B31092817390709
:100C000014F41092390180913A018F5F843118F405
:100C100080933A0103C081E080933A01FF91EF9104
:100C2000BF91AF919F918F917F916F915F914F9104
:100C30003F912F910F900FBE0F901F9018951F920C
:100C40000F920FB60F9211242F933F934F935F9300
:100C50006F937F938F939F93AF93BF93EF93FF9384
:100C6000809140018068809340010E9479018093C7
:100C70003C0180913D018D7F80933D01FF91EF917B
:100C8000BF91AF919F918F917F916F915F914F91A4
:100C90003F912F910F900FBE0F901F9018951F92AC
:100CA0000F920FB60F9211240F900FBE0F901F904E
:100CB00018951F920F920FB60F9211248F939F9346
:100CC0008091400181FF07C090910601973048F064
:100CD0001092060106C090910601963010F0109215
:100CE0000601806480934001809106018F5F8093AC
:100CF0000601809141019091420101969093420139
:100D00008093410180913E018F5F80933E019F91CE
:100D10008F910F900FBE0F901F9018951F920F92FA
:100D20000FB60F9211248F939F938091780090912A
:100D3000790090930F0180930E0180913D018160B5
:100D400080933D019F918F910F900FBE0F901F9048
:100D500018956623B1F0FC016150262F30E02F5F1B
:100D60003F4F280F391F80E09191892798E04CE888
:100D7000869508F484279A95D9F7E217F307A1F727
:100D8000089580E0089598E021E03FB7F8944298F4
:100D90003A9A44E04A95F1F7482F422311F03A98E5
:100DA000429AEBE2F1E03197F1F700C000003A9887
:100DB000429AF4E0FA95F1F73FBF220F915029F7DC
:100DC000089598E021E080E04FB7F89442983A9A6D
:100DD0003A98429A3CE33A95F1F736B14FBF40EF6B
:100DE0004A95F1F732FD822BEBE2F1E03197F1F712
:100DF00000C00000220F915039F708953B9A8823D4
:100E000011F0439A0895439808959FB7F894429833
:100E10003A9AEFE9F5E03197F1F700C000003A980F
:100E2000429AE1EDF0E03197F1F700C0000086B1A1
:100E30009FBFEFECF2E03197F1F700C0000082FBBA
:100E4000882780F991E0892708958F929F92AF9229
:100E5000BF92EF92FF920F931F93CF93DF93CDB783
:100E6000DEB729970FB6F894DEBF0FBECDBF4B019A
:100E70005C010E9405078CEC0E94C306F89484E490
:100E80000E94C306429A3A9A78942FE789EA93E03F
:100E9000215080409040E1F700C0000042983A980D
:100EA0000E9405078CEC0E94C3068EEB0E94C306CD
:100EB0008E010F5F1F4F7E01EAE0EE0EF11C0E94D3
:100EC000E106F80181938F01EE15FF05C1F769E096
:100ED000CE0101960E94A906811111C06A8170E0BD
:100EE000762F66278981682B072E000C880B990BBB
:100EF0000E94860CA50194010E94E30B03C060E0F0
:100F000070E0CB0129960FB6F894DEBF0FBECDBFBF
:100F1000DF91CF911F910F91FF90EF90BF90AF9015
:100F20009F908F900895EF92FF920F931F93CF930E
:100F3000DF937C010E94050783E30E94C306E7015B
:100F40008701085F1F4F0E94E1068993C017D107F0
:100F5000D1F768E0C7010E94A90691E0811190E0F5
:100F6000892FDF91CF911F910F91FF90EF900895FE
:100F7000EF92FF920F931F93CF93DF93CDB7DEB71E
:100F800029970FB6F894DEBF0FBECDBF0E940507AC
:100F90008CEC0E94C3068EEB0E94C3068E010F5F8D
:100FA0001F4F7E018AE0E80EF11C0E94E106F80165
:100FB00081938F01EE15FF05C1F769E0CE0101961F
:100FC0000E94A906811110C08FE18D838EE40E94DA
:100FD000C3068B810E94C3068C810E94C3068D814B
:100FE0000E94C3060E94050729960FB6F894DEBF3B
:100FF0000FBECDBFDF91CF911F910F91FF90EF906A
:101000000895A1E1B0E0E7E0F8E00C94640D7C0104
:101010003B016A01FC0117821682838181FF37C37D
:101020009E012F5F3F4F4901F7019381F30193FD2B
:10103000859193FF81913F01882309F424C3853270
:1010400039F493FD859193FF81913F01853239F405
:10105000B70190E00E94F90E56016501E5CF10E05E
:10106000312C20E02032A0F48B3269F030F4803251
:1010700059F0833269F420612CC08D3239F080330D
:1010800039F4216026C02260246023C0286021C07A
:1010900027FD27C030ED380F3A3078F426FF06C020
:1010A000FAE01F9F300D1124132F13C08AE0389EE1
:1010B000300D1124332E20620CC08E3221F426FD17
:1010C000E2C2206406C08C3611F4206802C0883663
:1010D00041F4F30193FD859193FF81913F018111CB
:1010E000C1CF9BEB980F933018F42061805E06C04F
:1010F0009BE9980F933008F066C12F7E26FF16E01B
:101100002F73522E853619F42064522E08C086366D
:1011100021F4922F9068592E02C01111115057FEE0
:1011200007C01C3350F422242394210E27E00BC067
:10113000183038F027E017E005C027E09CE3292E9F
:1011400002C0212F212C5601E4E0AE0EB11CF601A5
:101150006081718182819381022DA4010E940B0E16
:101160006C0129812C8720FF02C023FF06C051FC9F
:1011700006C052FE06C000E205C00DE203C00BE24D
:1011800001C000E08C858C7019F001115DC29EC217
:1011900057FE10C02C0C2C8524FF04C08A8181339B
:1011A00009F42A94121474F538E0321578F588E0C1
:1011B000282E2CC056FC2AC0812F90E08C159D054E
:1011C0009CF08CEFC8168FEFD80674F0952D9068C0
:1011D000592E0AC0E2E0F0E0EC0FFD1FE10FF11D17
:1011E0008081803319F411501111F4CF57FE0EC0D5
:1011F00022242394210E812F90E0C816D9062CF4C6
:101200001C1904C02224239401C010E057FE06C01C
:101210001C141D0434F4C601019605C085E090E05D
:1012200002C081E090E001110196112331F0212FDD
:1012300030E02F5F3F4F820F931F232D30E0821746
:10124000930714F4381A01C0312C852D897049F4A4
:10125000332039F0B70180E290E00E94F90E3A9411
:10126000F7CF002329F0B701802F90E00E94F90EFC
:1012700053FC09C0332039F0B70180E390E00E94AD
:10128000F90E3A94F7CF57FE4DC02601D7FE02C0A3
:10129000412C512CC6010196841995099401280FFF
:1012A000391F3E872D87960122193109388B2F87E8
:1012B000012F10E01195019511093FEF43165306D8
:1012C00029F4B7018EE290E00E94F90EC414D5040F
:1012D0004CF02F8538892415350524F4ED85FE85DD
:1012E000808101C080E3F1E04F1A51082D853E85D1
:1012F0002F5F3F4F3E872D87401651062CF0B701D8
:1013000090E00E94F90ED9CFC414D50441F49A811B
:10131000963320F4953319F43C8534FF81E3B7010B
:1013200090E04EC08A81813319F02C852F7E2C8766
:10133000B70190E00E94F90E111105C054FC18C0CD
:1013400085E690E017C0B7018EE290E00E94F90EAA
:101350001E5F82E001E0080FF401E80FF11D8081BB
:10136000B70190E00E94F90E802F0113F3CFE6CF72
:1013700085E490E0B7010E94F90ED7FC06C0C114C5
:10138000D10441F43C8534FF05C0D194C194D10807
:101390008DE201C08BE2B70190E00E94F90E80E37C
:1013A000EAE0CE16D1042CF08F5F9AE0C91AD1087A
:1013B000F7CFB70190E00E94F90EB701C601C096C1
:1013C0000E94F90E56C1833631F0833779F08335A8
:1013D00009F058C021C05601F2E0AF0EB11CF60171
:1013E0008081898301E010E0640114C05601F2E0BD
:1013F000AF0EB11CF601C080D18026FF03C0612F63
:1014000070E002C06FEF7FEFC601298B0E94EE0EE5
:101410008C0129892F7715C05601F2E0AF0EB11C5F
:10142000F601C080D18026FF03C0612F70E002C0AA
:101430006FEF7FEFC601298B0E94E30E8C01298993
:101440002068522E23FD1AC0832D90E0081719073B
:10145000A8F4B70180E290E00E94F90E3A94F4CF2C
:10146000F60157FC859157FE81916F01B70190E01D
:101470000E94F90E31103A9401501109011511051D
:1014800079F7F7C0843611F0893659F5560127FFF0
:1014900009C0F4E0AF0EB11CF60160817181828158
:1014A00093810AC0F2E0AF0EB11CF6016081718138
:1014B000072E000C880B990B2F76522E97FF09C030
:1014C00090958095709561957F4F8F4F9F4F2068C5
:1014D000522E2AE030E0A4010E94290FC82EC8181D
:1014E0003FC0022F853721F40F7E2AE030E01DC077
:1014F000097F8F3691F018F4883559F0C4C08037D1
:1015000019F0883711F0BFC0006104FF09C0046002
:1015100007C024FF08C0066006C028E030E005C010
:1015200020E130E002C020E132E0560107FF09C0AF
:10153000F4E0AF0EB11CF60160817181828193816C
:1015400008C0F2E0AF0EB11CF6016081718180E04D
:1015500090E0A4010E94290FC82EC8180F77502EC2
:1015600056FE0BC0052D0E7FC11650F454FE0AC066
:1015700052FC08C0052D0E7E05C0DC2C052D03C0D5
:10158000DC2C01C0D12E04FF0DC0FE01EC0DF11DBD
:101590008081803311F4097E09C002FF06C0D39414
:1015A000D39404C0802F867809F0D39403FD11C032
:1015B00000FF06C0D31488F43C0C132D1D190EC077
:1015C000D31460F4B70180E290E00E94F90ED39446
:1015D000F7CFD31418F43D1802C01C2D312C04FF92
:1015E00010C0B70180E390E00E94F90E02FF17C01F
:1015F00001FD03C088E790E002C088E590E0B701F4
:101600000CC0802F867859F001FF02C08BE201C028
:1016100080E207FD8DE2B70190E00E94F90EC1164D
:1016200038F4B70180E390E00E94F90E1150F7CF33
:10163000CA94F401EC0DF11D8081B70190E00E9485
:10164000F90EC110F5CF15C0F4E0F31560F584E094
:10165000381A53FE1FC0011127C03C8533FF2AC032
:101660000CE910E0852D8071582EF80184918111CC
:1016700024C0332009F4F1CCB70180E290E00E944D
:10168000F90E3A94F6CFF7018681978126C08FEF45
:101690009FEF23C0B70180E290E00E94F90E3A94D8
:1016A0003110F8CFD8CF312CB701802F90E00E94B5
:1016B000F90ED3CF00EA10E0D5CF51108052B70118
:1016C00090E00E94F90E0F5F1F4FCFCF23E023154C
:1016D00010F483E0BDCF312CC0CF6196E2E10C94D1
:1016E000800D5058BB27AA270E94890B0C94FC0C34
:1016F0000E94EE0C38F00E94F50C20F039F49F3F68
:1017000019F426F40C94EB0C0EF4E095E7FB0C9422
:10171000E50CE92F0E940D0D58F3BA176207730705
:101720008407950720F079F4A6F50C942F0D0EF49C
:10173000E0950B2EBA2FA02D0B01B90190010C01E1
:10174000CA01A0011124FF27591B99F0593F50F4F9
:10175000503E68F11A16F040A22F232F342F442751
:10176000585FF3CF469537952795A795F040539549
:10177000C9F77EF41F16BA0B620B730B840BBAF019
:101780009150A1F0FF0FBB1F661F771F881FC2F784
:101790000EC0BA0F621F731F841F48F48795779598
:1017A0006795B795F7959E3F08F0B0CF9395880F52
:1017B00008F09927EE0F9795879508950E94C10C20
:1017C00008F481E008950E94F70B0C94FC0C0E9431
:1017D000F50C58F00E94EE0C40F029F45F3F29F020
:1017E0000C94E50C51110C94300D0C94EB0C0E94F0
:1017F0000D0D68F39923B1F3552391F3951B550B08
:10180000BB27AA2762177307840738F09F5F5F4FD3
:10181000220F331F441FAA1FA9F335D00E2E3AF012
:10182000E0E832D091505040E695001CCAF72BD02A
:10183000FE2F29D0660F771F881FBB1F261737077B
:101840004807AB07B0E809F0BB0B802DBF01FF27AD
:1018500093585F4F3AF09E3F510578F00C94E50C99
:101860000C94300D5F3FE4F3983ED4F38695779562
:101870006795B795F7959F5FC9F7880F911D969566
:10188000879597F90895E1E0660F771F881FBB1FC2
:10189000621773078407BA0720F0621B730B840B6F
:1018A000BA0BEE1F88F7E09508950E94150D88F099
:1018B0009F5798F0B92F9927B751B0F0E1F0660F14
:1018C000771F881F991F1AF0BA95C9F714C0B13055
:1018D00091F00E942F0DB1E008950C942F0D672F09
:1018E000782F8827B85F39F0B93FCCF38695779584
:1018F0006795B395D9F73EF490958095709561956D
:101900007F4F8F4F9F4F0895E89409C097FB3EF497
:1019100090958095709561957F4F8F4F9F4F99233C
:10192000A9F0F92F96E9BB279395F69587957795BA
:101930006795B795F111F8CFFAF4BB0F11F460FF7A
:101940001BC06F5F7F4F8F4F9F4F16C0882311F0D2
:1019500096E911C0772321F09EE8872F762F05C0E6
:10196000662371F096E8862F70E060E02AF09A9581
:10197000660F771F881FDAF7880F9695879597F976
:101980000895990F0008550FAA0BE0E8FEEF161610
:101990001706E807F907C0F012161306E407F50763
:1019A00098F0621B730B840B950B39F40A2661F0D7
:1019B000232B242B252B21F408950A2609F4A1407A
:1019C000A6958FEF811D811D089597F99F6780E887
:1019D00070E060E008959FEF80EC089500240A9481
:1019E0001616170618060906089500240A941216FA
:1019F0001306140605060895092E0394000C11F42D
:101A0000882352F0BB0F40F4BF2B11F460FF04C0D9
:101A10006F5F7F4F8F4F9F4F089557FD9058440F32
:101A2000551F59F05F3F71F04795880F97FB991F3D
:101A300061F09F3F79F087950895121613061406FA
:101A4000551FF2CF4695F1DF08C016161706180687
:101A5000991FF1CF86957105610508940895E89462
:101A6000BB2766277727CB0197F908950E94C10C01
:101A700008F48FEF089597FB072E16F4009407D013
:101A800077FD09D00E949B0D07FC05D03EF4909590
:101A900081959F4F0895709561957F4F0895EE0F42
:101AA000FF1F0590F491E02D0994A29FB001B39F10
:101AB000C001A39F700D811D1124911DB29F700D57
:101AC000811D1124911D08952F923F924F925F9294
:101AD0006F927F928F929F92AF92BF92CF92DF923E
:101AE000EF92FF920F931F93CF93DF93CDB7DEB7A3
:101AF000CA1BDB0B0FB6F894DEBF0FBECDBF099437
:101B00002A88398848885F846E847D848C849B848D
:101B1000AA84B984C884DF80EE80FD800C811B819B
:101B2000AA81B981CE0FD11D0FB6F894DEBF0FBECA
:101B3000CDBFED010895AA1BBB1B51E107C0AA1F31
:101B4000BB1FA617B70710F0A61BB70B881F991F5E
:101B50005A95A9F780959095BC01CD0108958F9273
:101B60009F92AF92BF92CF92DF92EF92FF92CF936C
:101B7000DF93EC01688179818A819B816115710510
:101B80008105910521F464E279ED8BE597E02DE183
:101B900033EF41E050E00E94B00F49015A019B0130
:101BA000AC01A7EAB1E40E94CF0F6B017C01ACEE5F
:101BB000B4EFA50194010E94DD0FDC01CB018C0D77
:101BC0009D1DAE1DBF1DB7FF03C00197A109B04801
:101BD00088839983AA83BB839F77DF91CF91FF90FE
:101BE000EF90DF90CF90BF90AF909F908F9008952F
:101BF0000E94AF0D089580E091E00E94AF0D08951E
:101C0000A0E0B0E08093000190930101A093020155
:101C1000B09303010895283008F027E03327DA0154
:101C2000990F311D87FD916000966105710539F4AA
:101C300032602E5F3D9330E32A95E1F708959F3F90
:101C400030F080387105610509F03C5F3C5F3D93E1
:101C5000913008F08068911DDF93CF931F930F930D
:101C6000FF92EF92192F987F9695E92F969596956A
:101C7000E90FFF27E250FF4F99273327EE24FF2477
:101C8000A701E70105900894079428F4360FE71E92
:101C9000F81E491F511D660F771F881F991F069454
:101CA000A1F70590079428F4E70EF81E491F561F68
:101CB000C11D770F881F991F661F0694A1F7059015
:101CC000079428F4F80E491F561FC71FD11D880F0F
:101CD000991F661F771F0694A1F70590079420F4BB
:101CE000490F561FC71FD81F990F661F771F881FE0
:101CF0000694A9F784911095177041F0D695C79571
:101D000057954795F794E7941A95C1F7E4EAF0E000
:101D100068941590159135916591959105907FE2A4
:101D20007395E118F10A430B560BC90BD009C0F7A4
:101D3000E10CF11E431F561FC91FD01D7EF47033E6
:101D400011F48A95E6CFE894015030F0080F0AF4B8
:101D50000027021708F4202F2395022F7A3328F04A
:101D600079E37D932A95E9F710C07D932A9589F64A
:101D7000069497956795379517951794E118F10A8A
:101D8000430B560BC90BD00998F023957E917395A0
:101D90007A3308F070E37C932013B8F77E9170617A
:101DA0007D9330F0839571E37D9370E32A95E1F79D
:101DB0001124EF90FF900F911F91CF91DF91992700
:101DC00087FD90950895FC010590615070400110C9
:101DD000D8F7809590958E0F9F1F0895FC01615054
:101DE000704001900110D8F7809590958E0F9F1F3D
:101DF00008950F931F93CF93DF93182F092FEB01B3
:101E00008B8181FD03C08FEF9FEF1EC082FF0FC04B
:101E10002E813F818C819D812817390774F4E881D8
:101E2000F981CF01019699838883108306C0E885E4
:101E3000F985812F0995892B31F78E819F81019634
:101E40009F838E83812F902FDF91CF911F910F91D0
:101E50000895FA01AA27283051F1203181F1E89440
:101E60006F936E7F6E5F7F4F8F4F9F4FAF4FB1E08D
:101E70003ED0B4E03CD0670F781F891F9A1FA11D88
:101E8000680F791F8A1F911DA11D6A0F711D811D89
:101E9000911DA11D20D009F468943F912AE0269F4E
:101EA00011243019305D3193DEF6CF010895462FAD
:101EB0004770405D4193B3E00FD0C9F7F6CF462F8E
:101EC0004F70405D4A3318F0495D31FD40524193F7
:101ED00002D0A9F7EACFB4E0A695979587957795B4
:101EE0006795BA95C9F700976105710508959B013B
:101EF000AC010A2E06945795479537952795BA95C4
:101F0000C9F7620F731F841F951FA01D0895A8E1D4
:101F1000B0E042E050E00C94940F0E94A20F272FF3
:101F20000C94A30FDC01CB01FC01F999FECF06C094
:101F3000F2BDE1BDF89A319600B40D924150504087
:101F4000B8F70895262FF999FECF1FBA92BD81BD2B
:101F500020BD0FB6F894FA9AF99A0FBE019608952B
:101F6000052E97FB1EF400940E94C70F57FD07D063
:101F70000E94E20F07FC03D04EF40C94C70F50955B
:101F80004095309521953F4F4F4F5F4F0895909565
:101F90008095709561957F4F8F4F9F4F08950E9458
:101FA000550DA59F900DB49F900DA49F800D911D80
:101FB00011240895B7FF0C94CF0F0E94CF0F821BFE
:101FC000930B0895A1E21A2EAA1BBB1BFD010DC0A5
:101FD000AA1FBB1FEE1FFF1FA217B307E407F507D9
:101FE00020F0A21BB30BE40BF50B661F771F881FB5
:101FF000991F1A9469F760957095809590959B014B
:0C200000AC01BD01CF010895F894FFCFA2
:06200C00010000002201AA
:00000001FF
