:100000000C944E000C946B000C946B000C946B00E1
:100010000C946B000C946B000C946B000C946B00B4
:100020000C946B000C947E040C946B000C946B008D
:100030000C946B000C946B000C9474040C946B0087
:100040000C9421040C946B000C94C6040C946B006B
:100050000C946B000C946B000C946B000C946B0074
:100060000C946B000C946B00D100D500DB00E30016
:10007000ED00F9000701D701E101EB01F501FF01F6
:10008000090213021D02270231023B0245024F0200
:10009000590263026D02770281028B0211241FBE96
:1000A000CFEFD4E0DEBFCDBF11E0A0E0B1E0ECE8DF
:1000B000FFE002C005900D92A239B107D9F722E006
:1000C000A2E9B1E001C01D92AE3DB207E1F70E9486
:1000D000BA020C94C4070C9400009091C501292F1A
:1000E00024602093C5012091920120939301E9E9B6
:1000F000F1E02DEA31E010823296E217F307D9F7EA
:100100001092BB011092BD01813049F018F082308D
:10011000C9F029C0109295011092C40124C09F7E9D
:1001200094609093C50181E08093BB01809195011B
:1001300090919301890F80939501809195010E9480
:10014000130511C094619093C50181E08093BD01B6
:100150008091C40190919301890F8093C401809193
:10016000C4010E9413050E94510766E070E00E94DE
:10017000D5068F5F8093C8010895EDEAF1E02BEB7F
:1001800031E010823296E217F307D9F790E0FC01D4
:100190003197E730F10508F049C0EC5CFF4F0C9453
:1001A000E90681E08093AD01089581E08093B30179
:1001B0008093B701089581E08093AD018093B301EE
:1001C0008093B701089581E08093B3018093B501D6
:1001D0008093B7018093B901089581E08093AD01C8
:1001E0008093B3018093B5018093B7018093B901E7
:1001F000089581E08093AF018093B1018093B301B2
:100200008093B5018093B7018093B901089581E08F
:100210008093AD018093AF018093B1018093B301CE
:100220008093B5018093B7018093B9010895EDEAF9
:10023000F1E02BEB31E010823296E217F307D9F7A9
:100240008330E1F028F4813049F0823079F008956C
:10025000853021F1D8F0863049F1089581E080930E
:10026000AD018093AF018093B101089581E0809347
:10027000AD018093B5018093B901089581E0809329
:10028000AD018093B3018093B701089581E080931D
:10029000AD018093AF018093B101089581E0809317
:1002A000AD018093B5018093B901089581E08093F9
:1002B000AD018093B3018093B70108954091C601C9
:1002C0005091C70121E030E0082E02C0220F331FF9
:1002D0000A94E2F724233523A90102C056954795D5
:1002E0008A95E2F7CA01892BC9F01092C7011092D2
:1002F000C6018091C1010E9417018091C1018F5FE9
:100300008093C1018091C101873040F081E08093EA
:10031000C1018091C80181508093C8018091C801BA
:10032000811104C0809193010E94BD000895CF9374
:1003300086179707F0F4E9E9F1E02DEA31E0108241
:100340003296E217F307D9F714C09A012E0F3F1F18
:100350008217930740F09B012E0F3F1F2817390784
:1003600010F0C08301C010823296EA17FB0769F7CC
:1003700011C0E9E9F1E027E931E0ADEAB1E0A90116
:1003800040955095460F571F621B730B6F5F7F4F51
:10039000C1E0DBCFCF91089590E0FC013197E331CC
:1003A000F10508F0C2C0E55CFF4F0C94E906229A03
:1003B0002198209857985E9A5D985C985B985A9817
:1003C0000895229A2198209857985E985D9A5C9893
:1003D0005B985A980895229A2198209857985E9889
:1003E0005D985C9A5B985A980895229A2198209873
:1003F00057985E985D985C985B9A5A980895229AEF
:100400002198209857985E985D985C985B985A9AC6
:1004100008952298219A209857985E9A5D985C9842
:100420005B985A9808952298219A209857985E9838
:100430005D9A5C985B985A9808952298219A209822
:1004400057985E985D985C9A5B985A9808952298A0
:10045000219A209857985E985D985C985B9A5A9874
:1004600008952298219A209857985E985D985C98F4
:100470005B985A9A089522982198209A57985E9AE4
:100480005D985C985B985A98089522982198209AD4
:1004900057985E985D9A5C985B985A980895229850
:1004A0002198209A57985E985D985C9A5B985A9824
:1004B000089522982198209A57985E985D985C98A4
:1004C0005B9A5A98089522982198209A57985E9896
:1004D0005D985C985B985A9A089522982198209884
:1004E000579A5E9A5D985C985B985A9808952298FE
:1004F00021982098579A5E985D9A5C985B985A98D4
:100500000895229821982098579A5E985D985C9A51
:100510005B985A980895229821982098579A5E9847
:100520005D985C985B9A5A98089522982198209833
:1005300057985E985D985C985B985A98089587E004
:1005400084B91BB880E287B984E188B98CE78AB99D
:100550001BB8089581E085BD80936E0097E090936D
:10056000B1008093700088EC80937C0086E88093D3
:100570007A000895109296011092C1010E949F0284
:100580000E94AA020E94E904789481E08093990174
:1005900084E091E00E940405A12CB12C992493944D
:1005A0000F2EF9E94F2EF1E05F2EF02D0F2EFFEB0D
:1005B000EF2EF1E0FF2EF02D0F2EFAE7CF2ED12CEB
:1005C000F02D0F2EF9E76F2E712CF02D0F2EF7E97D
:1005D0002F2EF1E03F2EF02D0DEA11E00E948B0549
:1005E0008091C3018A3009F078C0349976C0809137
:1005F000C201823021F128F4882359F08130A9F01A
:1006000067C0843009F43FC018F1863009F455C042
:100610005FC08091C501837F8093C501F201108284
:100620003296EE15FF05D9F753C08091C5018D7F35
:1006300084608093C50180E00E946D0049C0809174
:10064000C50186608093C50180E00E946D0040C0B6
:100650008091C501982F9D7F94609093C50184FF80
:1006600009C0892D0E946D008091C5018F7E809305
:10067000C5012EC082E00E946D008091C50180619D
:100680008093C50125C08091C501982F96609093F5
:10069000C50184FF09C0892D0E946D008091C501AC
:1006A0008F7E8093C50114C082E00E946D0080910E
:1006B000C50180618093C5010BC08091C5018C602C
:1006C0008093C501F20190823296EE15FF05D9F7AD
:1006D0008091C3018F5F8093C3018091C3018431F6
:1006E00049F4F6018081806480838091C3018F5F2B
:1006F0008093C3018091C301863461F4E8E7F0E0A0
:10070000A080F3018081B12CB82A8091C3018F5F52
:100710008093C3018091C50182FF0CC083FD18C086
:1007200088608093C501F10110823296E017F107CD
:10073000D9F70EC08091C301883C51F46AE471E09E
:10074000C5010E9497018091C3018F5F8093C3010F
:100750003091C8012091C5018091C201992D83304B
:1007600008F490E0892D311180E0892390E023FB8B
:10077000FF27F0F9CF2F30E0D32F8C239D23892B37
:1007800009F456C024FF2BC08091C4018B30E8F0DF
:100790008091C40190E00A97181619060CF048C021
:1007A00081E090E0492DFC01EE0FFF1FE956FE4F5E
:1007B00090824F5F842F90E02091C40130E02A5056
:1007C0003109281739077CF733C08091C30184FFB2
:1007D00003C0F20190822CC0F201108229C08091E6
:1007E00095018B30E0F08091950190E00A97181602
:1007F0001906F4F481E090E0492DFC01EE0FFF1F93
:10080000E956FE4F90824F5F842F90E02091950132
:1008100030E02A503109281739077CF709C0809148
:10082000C30184FF03C0F201908202C0F201108272
:100830008091C801882309F4D1CE83E00E945E0133
:10084000CDCE1F920F920FB60F9211242F933F938C
:100850004F935F936F937F938F939F93AF93BF93C8
:10086000EF93FF938091C001E82FF0E0EE0FFF1FA0
:10087000E956FE4F9081992339F09091BF01911173
:1008800003C00E94CC0103C080E00E94CC012091F3
:10089000BF012F5F2093BF0130E04091960181E1BD
:1008A00090E0841B91098217930714F41092BF0102
:1008B0008091C0018F5F843118F48093C00103C020
:1008C00081E08093C001FF91EF91BF91AF919F9123
:1008D0008F917F916F915F914F913F912F910F90E9
:1008E0000FBE0F901F9018951F920F920FB60F9288
:1008F00011240F900FBE0F901F9018951F920F920A
:100900000FB60F9211242F933F934F935F936F93E2
:100910007F938F939F93AF93BF93EF93FF930E9427
:10092000C6068091C50181FF07C080919201873082
:1009300048F01092920106C080919201863010F02A
:1009400010929201809192018F5F80939201809129
:10095000C3018F5F8093C3018091C6019091C7014D
:1009600001969093C7018093C601FF91EF91BF91CB
:10097000AF919F918F917F916F915F914F913F9137
:100980002F910F900FBE0F901F9018951F920F92EE
:100990000FB60F9211248F939F93EF93FF93809143
:1009A000CA019091C600E82FF0E0E752FE4F908315
:1009B0008F5F8A3F19F08093CA0102C01092CA016A
:1009C000FF91EF919F918F910F900FBE0F901F900D
:1009D00018951092C5008DE48093C40088E9809337
:1009E000C1000895459A93E09093D801EFE2F5E7AE
:1009F0003197F1F700C00000E0ECF0E0908195FF46
:100A0000FDCF8093C6000895CF93DF93EC018881DA
:100A1000882331F021960E94F20489918111FBCF45
:100A2000DF91CF910895CF939DEC899F912D112453
:100A3000C92FC695C695C695CC0F2C2F220F220F15
:100A4000C20F8C1BC82F892F86958695869511F02D
:100A50000E94130580E38C0F0E94F204CF91089549
:100A6000CF938091D7013091CA01381708F43650DE
:100A7000381B3093C901332309F44BC05091DD0278
:100A800050FD47C02091D7018091CB019091CC01BE
:100A90003150C0E070E0A3EDB2E060E0E22FF0E0A2
:100AA000E752FE4F40814E3321F08530910540F4EE
:100AB00002C08C2F972FFC01ED52FD4F4083019611
:100AC0008530910529F44C914E3311F41C925160FC
:100AD0002F5F2A3F09F4262F31110BC02093D70135
:100AE0009093CC018093CB015093DD023093C901E8
:100AF00010C04FEF430F50FD02C0342FCFCF2093D3
:100B0000D7019093CC018093CB015093DD023093B9
:100B1000C901CF910895CF93DF930E943005809152
:100B2000DD0280FF70C08E7F8093DD028091D40251
:100B30008D3009F068C08091D502833071F128F4BE
:100B4000882349F08130A1F05EC0843081F1853086
:100B500009F44AC058C08091D7028D3009F053C0C3
:100B600084E291E00E9404058AE00E94F2044BC0F6
:100B70008091D7028D3009F046C080E391E00E9459
:100B80000405C6EDD2E088810E9413058881809318
:100B9000C2018AE00E94F20436C08091D7028D30F3
:100BA00091F58091C50180628093C5012CC0809130
:100BB000D7028D3041F580919201809393018AE0B4
:100BC0000E94F2048DE391E00E9404050E94510707
:100BD00066E070E00E94D5068F5F8093C801809127
:100BE00093010E9413050FC08091D7028D3059F4F4
:100BF0008AE00E94F20488E491E00E94040580915A
:100C0000D6020E946D009091C50195FFBCC08091F5
:100C1000C2018230D9F128F4882361F0813001F1DA
:100C2000A8C0843009F470C008F446C0863009F4C6
:100C300093C09FC086E591E00E9404058AE00E946F
:100C4000F2048091C501837F8093C501E9E9F1E059
:100C50008FEB91E010823296E817F907D9F789C037
:100C600094609093C5018AE00E94F20486E691E0C8
:100C70000E9404058091C5018D7F8093C5018AE0A3
:100C80000E94F20480E00E946D0073C09460909313
:100C9000C5018AE00E94F2048CE791E00E940405FD
:100CA0008091C50182608093C5018AE00E94F204B0
:100CB00080E00E946D005DC094609093C5018AE061
:100CC0000E94F20486E691E00E9404058091C5012D
:100CD0008D7F8093C5018AE00E94F2048091C50156
:100CE00084FF09C081E00E946D008091C5018F7E64
:100CF0008093C5013EC082E00E946D008091C501D5
:100D000080618093C50135C094609093C5018AE0ED
:100D10000E94F2048CE791E00E9404058091C501D5
:100D200082608093C5018AE00E94F2048091C5012F
:100D300084FF09C081E00E946D008091C5018F7E13
:100D40008093C50116C082E00E946D008091C501AC
:100D500080618093C5010DC09C609093C501E9E955
:100D6000F1E08FEB91E021E020833296E817F9075C
:100D7000D9F78091C3018F5F8093C3018091C50132
:100D80008F7D8093C501DF91CF9108958091D80127
:100D9000882351F08091D801813009F445988091E1
:100DA000D80181508093D801089597FB072E16F43F
:100DB000009407D077FD09D00E94EF0607FC05D00C
:100DC0003EF4909581959F4F0895709561957F4F62
:100DD0000895EE0FFF1F0590F491E02D0994AA1BD2
:100DE000BB1B51E107C0AA1FBB1FA617B70710F016
:100DF000A61BB70B881F991F5A95A9F78095909548
:100E0000BC01CD0108958F929F92AF92BF92CF9275
:100E1000DF92EF92FF92CF93DF93EC0168817981AB
:100E20008A819B81611571058105910521F464E238
:100E300079ED8BE597E02DE133EF41E050E00E9442
:100E4000610749015A019B01AC01A7EAB1E40E9484
:100E500080076B017C01ACEEB4EFA50194010E9408
:100E60008E07C60ED71EE81EF91EF7FE06C081E0EB
:100E7000C81AD108E10880E8F80AC882D982EA8253
:100E8000FB82C6019F77DF91CF91FF90EF90DF90BB
:100E9000CF90BF90AF909F908F9008950E940307CE
:100EA000089580E091E00E9403070895A0E0B0E07B
:100EB0008093000190930101A0930201B09303017C
:100EC0000895052E97FB1EF400940E94780757FDA5
:100ED00007D00E94930707FC03D04EF40C947807C8
:100EE00050954095309521953F4F4F4F5F4F089556
:100EF00090958095709561957F4F8F4F9F4F089586
:100F00000E94B507A59F900DB49F900DA49F800DE2
:100F1000911D11240895B7FF0C9480070E9480074B
:100F2000821B930B0895A1E21A2EAA1BBB1BFD0185
:100F30000DC0AA1FBB1FEE1FFF1FA217B307E407B8
:100F4000F50720F0A21BB30BE40BF50B661F771F10
:100F5000881F991F1A9469F76095709580959095F0
:100F60009B01AC01BD01CF010895A29FB001B39FC9
:100F7000C001A39F700D811D1124911DB29F700DA2
:0C0F8000811D1124911D0895F894FFCFED
:100F8C000100000054656D70616E7A6569676520BB
:100F9C00756E64205775657266656C205665722097
:100FAC00302E340056657273696F6E20302E34000B
:100FBC005775657266656C6D6F64653A007775651B
:100FCC007266656C6E3A20004D756C7469706C615C
:100FDC007965723A200054454D50414E5A45494767
:100FEC004520414E3A005775657266656C2053700A
:100FFC00657A69616C6D6F64652036005775657232
:10100C0066656C205370657A69616C6D6F646520E0
:02101C0037009B
:00000001FF
