:100000000C944E000C946B000C946B000C946B00E1
:100010000C946B000C946B000C946B000C946B00B4
:100020000C946B000C947B060C946B000C946B008E
:100030000C946B000C946B000C9471060C946B0088
:100040000C941E060C946B000C94BB060C946B0075
:100050000C946B000C946B000C946B000C946B0074
:100060000C946B000C946B00810085008B00930056
:100070009D00A900B700870191019B01A501AF0177
:10008000B901C301CD01D701E101EB01F501FF0188
:10009000090213021D02270231023B0211241FBE76
:1000A000CFEFD4E0DEBFCDBF11E0A0E0B1E0EEE9DC
:1000B000FFE002C005900D92A239B107D9F722E006
:1000C000A2E9B1E001C01D92AE3DB207E1F70E9486
:1000D00071030C94CD070C940000EDEBF1E02BECD8
:1000E00031E010823296E217F307D9F790E0FC0175
:1000F0003197E730F10508F049C0EC5CFF4F0C94F4
:10010000F20681E08093BD01089581E08093C301F0
:100110008093C701089581E08093BD018093C3015E
:100120008093C701089581E08093C3018093C50146
:100130008093C7018093C901089581E08093BD0138
:100140008093C3018093C5018093C7018093C90147
:10015000089581E08093BF018093C1018093C30122
:100160008093C5018093C7018093C901089581E000
:100170008093BD018093BF018093C1018093C3012F
:100180008093C5018093C7018093C9010895EDEB69
:10019000F1E02BEC31E010823296E217F307D9F749
:1001A0008330E1F028F4813049F0823079F008950D
:1001B000853021F1D8F0863049F1089581E08093AF
:1001C000BD018093BF018093C101089581E08093B8
:1001D000BD018093C5018093C901089581E080939A
:1001E000BD018093C3018093C701089581E080938E
:1001F000BD018093BF018093C101089581E0809388
:10020000BD018093C5018093C901089581E0809369
:10021000BD018093C3018093C70108954091DA0224
:100220005091DB0221E030E0082E02C0220F331F84
:100230000A94E2F724233523A90102C05695479575
:100240008A95E2F7CA01892BC9F01092DB0210925D
:10025000DA028091D1010E94C7008091D1018F5FA5
:100260008093D1018091D101873040F081E080936B
:10027000D1018091DD0281508093DD028091DD0209
:10028000811104C08091A1010E946D000895CF9357
:1002900086179707F0F4E9EAF1E02DEB31E01082E0
:1002A0003296E217F307D9F714C09A012E0F3F1FB9
:1002B0008217930740F09B012E0F3F1F2817390725
:1002C00010F0C08301C010823296EA17FB0769F76D
:1002D00011C0E9EAF1E027EA31E0ADEBB1E0A901B4
:1002E00040955095460F571F621B730B6F5F7F4FF2
:1002F000C1E0DBCFCF91089590E0FC013197E3316D
:10030000F10508F0C2C0E55CFF4F0C94F206229A9A
:100310002198209857985E9A5D985C985B985A98B7
:100320000895229A2198209857985E985D9A5C9833
:100330005B985A980895229A2198209857985E9829
:100340005D985C9A5B985A980895229A2198209813
:1003500057985E985D985C985B9A5A980895229A8F
:100360002198209857985E985D985C985B985A9A67
:1003700008952298219A209857985E9A5D985C98E3
:100380005B985A9808952298219A209857985E98D9
:100390005D9A5C985B985A9808952298219A2098C3
:1003A00057985E985D985C9A5B985A980895229841
:1003B000219A209857985E985D985C985B9A5A9815
:1003C00008952298219A209857985E985D985C9895
:1003D0005B985A9A089522982198209A57985E9A85
:1003E0005D985C985B985A98089522982198209A75
:1003F00057985E985D9A5C985B985A9808952298F1
:100400002198209A57985E985D985C9A5B985A98C4
:10041000089522982198209A57985E985D985C9844
:100420005B9A5A98089522982198209A57985E9836
:100430005D985C985B985A9A089522982198209824
:10044000579A5E9A5D985C985B985A98089522989E
:1004500021982098579A5E985D9A5C985B985A9874
:100460000895229821982098579A5E985D985C9AF2
:100470005B985A980895229821982098579A5E98E8
:100480005D985C985B9A5A980895229821982098D4
:1004900057985E985D985C985B985A98089587E0A5
:1004A00084B91BB880E287B984E188B98CE78AB93E
:1004B0001BB8089581E085BD14BC17BC18BC16BCE0
:1004C000EEE6F0E080818160808386E08093B10079
:1004D000E0E7F0E080818160808388EC80937C009D
:1004E00085E880937A0010927B0008951092C500F1
:1004F00086E18093C40088E98093C10086E0809300
:10050000C2000895459A93E09093A501EFEEF3E2BF
:100510003197F1F700C00000E0ECF0E0908195FF2A
:10052000FDCF8093C6000895CF93DF93EC018881BF
:10053000882331F021960E94820289918111FBCF9C
:10054000DF91CF910895CF932DEC829F212D11241F
:10055000269526952695220F922F990F990F290FF0
:10056000982F921B292F90E0821B91096AE070E07E
:100570000E94DE06C22FC063662319F0862F0E94F8
:10058000A3028C2F0E948202CF9108959091D902EC
:10059000292F24602093D902209193012093A10157
:1005A000E9EAF1E02DEB31E010823296E217F30731
:1005B000D9F71092CB011092CD01813049F018F09B
:1005C0008230C9F029C01092A4011092D80224C030
:1005D0009F7E94609093D90281E08093CB018091BB
:1005E000A4019091A101890F8093A4018091A4019D
:1005F0000E94A30211C094619093D90281E080937C
:10060000CD018091D8029091A101890F8093D802E9
:100610008091D8020E94A3020E945A0766E070E00F
:100620000E94DE068F5F8093DD020895CF93809154
:10063000A20130919401381708F43650381B3093DA
:100640009201332309F44BC05091DC0250FD47C0A6
:100650002091A20180919501909196013150C0E0C6
:1006600070E0ADECB2E060E0E22FF0E0ED52FE4F62
:1006700040814E3321F08530910540F402C08C2F2B
:10068000972FFC01E353FD4F408301968530910580
:1006900029F44C914E3311F41C9251602F5F2A3F84
:1006A00009F4262F31110BC02093A20190939601DB
:1006B000809395015093DC023093920110C04FEF6C
:1006C000430F50FD02C0342FCFCF2093A20190934F
:1006D0009601809395015093DC0230939201CF9163
:1006E00008951092A6011092D1010E944F020E941B
:1006F0005A020E947602789481E08093A90184E0F6
:1007000091E00E949402612C712C0F2EFEECAF2E12
:10071000F2E0BF2EF02D0F2EF9EA8F2EF1E09F2E82
:10072000F02DCFECD1E00F2EFAE7CF2ED12CF02D0B
:100730000F2EF9E72F2E312CF02D0F2EF7EA4F2E2A
:10074000F1E05F2EF02D0F2EFDEBEF2EF1E0FF2EEE
:10075000F02D0E9416038091DC0280FF79C08E7F0D
:100760008093DC02F50180818D3009F071C0EFECDF
:10077000F2E08081833091F128F4882349F08130C0
:10078000A9F066C08430A9F1853009F450C060C07A
:10079000E1EDF2E080818D3009F05AC084E291E011
:1007A0000E9494028AE00E94820252C0E1EDF2E0CF
:1007B00080818D3009F04CC080E391E00E9494026A
:1007C000E0EDF2E080810E94A302E0EDF2E08081A2
:1007D0008093D2018AE00E9482023AC0E1EDF2E009
:1007E00080818D30A9F58091D90280628093D902F1
:1007F0002FC0E1EDF2E080818D3051F580919301C1
:100800008093A1018AE00E9482028DE391E00E9420
:1008100094020E945A0766E070E00E94DE068F5F35
:100820008093DD028091A1010E94A30211C0E1ED3D
:10083000F2E080818D3061F48AE00E94820288E4D7
:1008400091E00E949402E0EDF2E080810E94C602F5
:100850008091D90285FFB6C09091D2019230C1F14A
:1008600028F4992361F09130E9F0A2C0943009F4A2
:100870006DC008F443C0963009F490C099C086E575
:1008800091E00E9494028AE00E9482028091D90243
:10089000837F8093D902F40110823296EC17FD0712
:1008A000D9F786C084608093D9028AE00E948202D0
:1008B00086E691E00E9494028091D9028D7F809318
:1008C000D9028AE00E94820280E00E94C60270C0C3
:1008D00084608093D9028AE00E9482028CE791E0D2
:1008E0000E9494028091D90282608093D9028AE0AA
:1008F0000E94820280E00E94C6025AC084608093F7
:10090000D9028AE00E94820286E691E00E94940267
:100910008091D9028D7F8093D9028AE00E94820261
:100920008091D90284FF09C081E00E94C6028091B3
:10093000D9028F7E8093D9023BC082E00E94C6021A
:100940008091D90280618093D90232C08460809303
:10095000D9028AE00E9482028CE791E00E94940210
:100960008091D90282608093D9028AE00E9482023B
:100970008091D90284FF09C081E00E94C602809163
:10098000D9028F7E8093D90213C082E00E94C602F2
:100990008091D90280618093D9020AC08C608093D3
:1009A000D902F40181E080833296EC17FD07D9F774
:1009B0008091D7028F5F8093D7028091D9028F7D7B
:1009C0008093D9028091D7028A3009F081C034998E
:1009D0007FC08091D201823021F128F4882359F020
:1009E0008130A9F070C0843009F447C058F18630D6
:1009F00009F45DC068C08091D902837F8093D902D9
:100A0000F40110823296EC17FD07D9F75CC0809193
:100A1000D9028D7F84608093D90280E00E94C60253
:100A200052C08091D90284608093D9028AE00E94EA
:100A300082028091D90282608093D90280E00E9474
:100A4000C60241C08091D902982F9D7F94609093F7
:100A5000D90284FF09C081E00E94C6028091D902B8
:100A60008F7E8093D9022FC082E00E94C6028091BF
:100A7000D90280618093D90226C08091D902982F33
:100A800096609093D90284FF09C081E00E94C6025B
:100A90008091D9028F7E8093D90215C082E00E9496
:100AA000C6028091D90280618093D9020CC08091E6
:100AB000D9028C608093D902F40181E08083329660
:100AC000EC17FD07D9F78091D7028F5F8093D7028B
:100AD0008091D702843149F4F6018081806480835B
:100AE0008091D7028F5F8093D7028091D70286349E
:100AF00061F4E8E7F0E06080F1018081712C782AF0
:100B00008091D7028F5F8093D7028091D90282FFB4
:100B10000CC083FD18C088608093D902F201108256
:100B20003296EE15FF05D9F70EC08091D702883CAA
:100B300051F46AE471E0C3010E9447018091D70239
:100B40008F5F8093D7023091DD022091D90280918E
:100B5000D20191E0833008F490E081E0311180E02F
:100B6000892390E023FB002700F910E080239123E4
:100B7000892B09F45AC024FF2DC08091D8028B30F4
:100B8000F0F08091D80290E00A97181619060CF040
:100B90004CC081E090E041E051E0FC01EE0FFF1F0E
:100BA000E955FE4F50834F5F842F90E02091D8028B
:100BB00030E02A503109281739077CF736C0809178
:100BC000D70284FF04C081E0F40180832EC0F401C9
:100BD00010822BC08091A4018B30E8F08091A40199
:100BE00090E00A971816190604F581E090E041E0BC
:100BF00051E0FC01EE0FFF1FE955FE4F50834F5FA0
:100C0000842F90E02091A40130E02A503109281768
:100C100039077CF70AC08091D70284FF04C081E0C5
:100C2000F401808302C0F40110828091DD028823E8
:100C300009F48FCD83E00E940E018BCD1F920F929D
:100C40000FB60F9211242F933F934F935F936F939F
:100C50007F938F939F93AF93BF93EF93FF93809175
:100C6000D001E82FF0E0EE0FFF1FE955FE4F908115
:100C7000992339F09091CF01911103C00E947C011A
:100C800003C080E00E947C012091CF012F5F209360
:100C9000CF0130E04091A60181E190E0841B9109F1
:100CA0008217930714F41092CF018091D0018F5FC7
:100CB000843118F48093D00103C081E08093D00187
:100CC000FF91EF91BF91AF919F918F917F916F9124
:100CD0005F914F913F912F910F900FBE0F901F90FA
:100CE00018951F920F920FB60F9211240F900FBEFE
:100CF0000F901F9018951F920F920FB60F9211240C
:100D00008F939F938091A501882351F08091A50135
:100D1000813009F445988091A50181508093A50107
:100D20008091D90281FF07C080919301873048F0FC
:100D30001092930106C080919301863010F01092BA
:100D40009301809193018F5F809393018091D702EB
:100D50008F5F8093D7028091DA029091DB02019637
:100D60009093DB028093DA029F918F910F900FBED8
:100D70000F901F9018951F920F920FB60F9211248B
:100D80008F939F93EF93FF93809194019091C6006E
:100D9000E82FF0E0ED52FE4F90838F5F8A3F19F00D
:100DA0008093940102C010929401FF91EF919F9162
:100DB0008F910F900FBE0F901F90189597FB072EE5
:100DC00016F4009407D077FD09D00E94F80607FCBE
:100DD00005D03EF4909581959F4F0895709561954B
:100DE0007F4F0895EE0FFF1F0590F491E02D0994B9
:100DF000AA1BBB1B51E107C0AA1FBB1FA617B70741
:100E000010F0A61BB70B881F991F5A95A9F780955C
:100E10009095BC01CD0108958F929F92AF92BF92A1
:100E2000CF92DF92EF92FF92CF93DF93EC01688134
:100E300079818A819B81611571058105910521F474
:100E400064E279ED8BE597E02DE133EF41E050E08E
:100E50000E946A0749015A019B01AC01A7EAB1E46B
:100E60000E9489076B017C01ACEEB4EFA5019401EF
:100E70000E949707C60ED71EE81EF91EF7FE06C091
:100E800081E0C81AD108E10880E8F80AC882D9824E
:100E9000EA82FB82C6019F77DF91CF91FF90EF90AE
:100EA000DF90CF90BF90AF909F908F9008950E9459
:100EB0000C07089580E091E00E940C070895A0E0DF
:100EC000B0E08093000190930101A0930201B093E0
:100ED00003010895052E97FB1EF400940E948107DC
:100EE00057FD07D00E949C0707FC03D04EF40C94DA
:100EF000810750954095309521953F4F4F4F5F4F5B
:100F0000089590958095709561957F4F8F4F9F4F75
:100F100008950E94BE07A59F900DB49F900DA49FB9
:100F2000800D911D11240895B7FF0C9489070E942C
:100F30008907821B930B0895A1E21A2EAA1BBB1BE3
:100F4000FD010DC0AA1FBB1FEE1FFF1FA217B30795
:100F5000E407F50720F0A21BB30BE40BF50B661FAB
:100F6000771F881F991F1A9469F76095709580956F
:100F700090959B01AC01BD01CF010895A29FB001E6
:100F8000B39FC001A39F700D811D1124911DB29FBD
:0E0F9000700D811D1124911D0895F894FFCF5E
:100F9E000100000054656D70616E7A6569676520A9
:100FAE00756E64205775657266656C205665722085
:100FBE00302E340056657273696F6E20302E3400F9
:100FCE005775657266656C6D6F64653A0077756509
:100FDE007266656C6E3A20004D756C7469706C614A
:100FEE007965723A200054454D50414E5A45494755
:100FFE004520414E3A005775657266656C205370F8
:10100E00657A69616C6D6F6465203600577565721F
:10101E0066656C205370657A69616C6D6F646520CE
:02102E00370089
:00000001FF
