S0130000546865726D6F6D657465722E7372656385
S11300000C944E000C946B000C946B000C946B00DD
S11300100C946B000C946B000C946B000C946B00B0
S11300200C946B000C945A040C946B000C946B00AD
S11300300C946B000C946B000C9450040C946B00A7
S11300400C94FD030C946B000C94A2040C946B00B0
S11300500C946B000C946B000C946B000C946B0070
S11300600C946B000C946B00D000D400DA00E10017
S1130070E900F200FC00BA01C401CE01D801E2019A
S1130080EC01F60100020A0214021E0228023202E6
S11300903C02460250025A0264026E0211241FBE40
S11300A0CFEFD4E0DEBFCDBF11E0A0E0B1E0E8E8DF
S11300B0FFE002C005900D92A239B107D9F722E002
S11300C0A2E9B1E001C01D92AE3DB207E1F70E9482
S11300D09D020C94C2070C9400009091C501292F35
S11300E024602093C5012091920120939301E9E9B2
S11300F0F1E02DEA31E010823296E217F307D9F7E6
S1130100E7E9F1E014A216A2813099F0823021F1DE
S1130110882351F00E944F0766E070E00E94B90600
S11301208F5F8093C8010895109295011092C401C5
S1130130F1CF9F7E94609093C50181E08093BB01D1
S11301408091950190919301890F809395018091FD
S113015095010E94F104DECF94619093C50181E082
S11301608093BD018091C40190919301890F809384
S1130170C4018091C4010E94F104CCCFE7E9F1E00D
S1130180168A108E128E148E168E10A212A2815010
S11301908730E0F5E82FF0E0EC5CFF4F0C94CD06DF
S11301A081E08093AD010895E7E9F1E081E0848F77
S11301B080A30895E7E9F1E081E0868B848F80A332
S11301C00895E7E9F1E081E0848F868F80A382A31C
S11301D00895E7E9F1E081E0868B848F868F80A320
S11301E082A30895E7E9F1E081E0808F828F848F14
S11301F0868F80A382A30895E7E9F1E081E0868BEE
S1130200808F828F848F868F80A382A30895E7E9ED
S1130210F1E0168A108E128E148E168E10A212A27F
S1130220843049F1A8F48230F9F0833039F4E7E9F5
S1130230F1E081E0868B848F80A30895813039F4C6
S1130240E7E9F1E081E0868B808F828F089508953D
S11302508530C1F0863039F4E7E9F1E081E0868B3E
S1130260848F80A308950895E7E9F1E081E0868B07
S1130270868F82A30895E7E9F1E081E0868B808F81
S1130280828F0895E7E9F1E081E0868B868F82A36F
S11302900895282F4091C6015091C70181E090E054
S11302A0022E02C0880F991F0A94E2F78423952333
S11302B002C0969587952A95E2F7892B29F48091B7
S11302C0C8018823D9F008951092C7011092C6017D
S11302D08091C1010E9407018091C1018F5F8093C9
S11302E0C1018091C101873050F381E08093C10145
S11302F08091C80181508093C801E1CF809193011E
S11303000E94BE00E0CF282F392F862F972F281761
S1130310390738F00196E9E9F1E04DEA51E0A1E04E
S113032013C0E7E9F1E01282148216821086128665
S113033014861686108A128A148AECCF10820296CA
S113034032964E175F0759F028173907B8F3BC01E6
S11303506E5F7F4F6217730788F3A083F0CF089511
S11303608150833108F0C4C0E82FF0E0E55CFF4F12
S11303700C94CD06229A2198209857985E9A5D98FD
S11303805C985B985A980895229A219820985798D7
S11303905E985D9A5C985B985A980895229A219881
S11303A0209857985E985D985C9A5B985A9808953F
S11303B0229A2198209857985E985D985C985B9A49
S11303C05A980895229A2198209857985E985D9893
S11303D05C985B985A9A08952298219A2098579885
S11303E05E9A5D985C985B985A9808952298219A31
S11303F0209857985E985D9A5C985B985A980895EF
S11304002298219A209857985E985D985C9A5B98F8
S11304105A9808952298219A209857985E985D9842
S11304205C985B9A5A9808952298219A2098579834
S11304305E985D985C985B985A9A089522982198E2
S1130440209A57985E9A5D985C985B985A9808959C
S113045022982198209A57985E985D9A5C985B98A8
S11304605A98089522982198209A57985E985D98F2
S11304705C9A5B985A98089522982198209A5798E4
S11304805E985D985C985B9A5A9808952298219892
S1130490209A57985E985D985C985B985A9A08954C
S11304A0229821982098579A5E9A5D985C985B9858
S11304B05A980895229821982098579A5E985D9AA0
S11304C05C985B985A980895229821982098579A96
S11304D05E985D985C9A5B985A9808952298219842
S11304E02098579A5E985D985C985B9A5A980895FC
S11304F022982198209857985E985D985C985B980C
S11305005A98089587E084B91BB880E287B984E1DA
S113051088B98CE78AB91BB8089581E085BD8093BA
S11305206E0096E09093B1008093700088EC809305
S11305307C0085E880937A000895109296011092C9
S1130540C1010E9482020E948D020E94C604789416
S113055081E08093990184E091E00E94E10410E03D
S113056000E00F2EFFEBEF2EF1E0FF2EF02D0F2E0B
S1130570FAE7CF2ED12CF02D0F2EF8E78F2E912CE9
S1130580F02D0F2EF9E76F2E712CF02DCDEAD1E06E
S11305900F2EF7E9AF2EF1E0BF2EF02D4424439443
S11305A0512CB5C03499BAC08091C2018330F1F1A5
S11305B0E0F4813061F1823049F48091C5018660B4
S11305C08093C50180E00E946D002AC0811128C07B
S11305D08091C501837F8093C501E9E9F1E0108230
S11305E03296EE16FF06D9F71BC08430D1F186305F
S11305F0B9F48091C5018C608093C501E9E9F1E00B
S113060081E080833296EE16FF06D9F709C0809107
S1130610C5018D7F84608093C50180E00E946D00D8
S11306208091C3018F5F8093C30178C09091C5010D
S1130630892F8D7F84608093C50194FF09C081E078
S11306400E946D008091C5018F7E8093C501E8CF23
S113065082E00E946D008091C50180618093C50194
S1130660DFCF8091C501982F96609093C50184FFD8
S113067009C081E00E946D008091C5018F7E809346
S1130680C501CECF82E00E946D008091C5018061DA
S11306908093C501C5CFF6018081806480838091F9
S11306A0C3018F5F8093C3013EC0F4010081F30155
S11306B08081182F8091C3018F5F8093C30138C05C
S11306C08091C301883C09F444C09091C8012091F1
S11306D0C5013091C20181E0911180E091E0333095
S11306E008F490E0892379F023FF0DC024FF58C05B
S11306F08091C4018B30C0F58091C30184FF4DC04B
S113070081E0F50182838091C801811172C00E9449
S11307106C058091C3018A3009F444CF8091C301F0
S1130720843109F4B8CF8091C301863409F4BDCF74
S11307308091C50182FFC4CF83FDC7CF88608093B9
S1130740C501E7E9F1E010823296CE17DF07D9F749
S1130750BCCF6AE471E0C8010E9483018091C301A7
S11307608F5F8093C301B1CF8091C4018B3058F265
S113077021E0842D952D31E0880F991FFC01E95665
S1130780FE4F30832F5F4091C401822F90E0495087
S1130790550B2417150684F3B6CFF5011282B3CF97
S11307A0809195018B3040F48091C30184FF1EC079
S11307B081E0F5018283A7CF809195018B3008F405
S11307C0A2CF21E0842D952D31E0880F991FFC01E3
S11307D0E956FE4F30832F5F40919501822F90E0C0
S11307E04950550B2417150684F38DCFF501128259
S11307F08ACF83E00E9449018ACF1F920F920FB6DD
S11308000F9211242F933F934F935F936F937F9392
S11308108F939F93AF93BF93EF93FF938091C00106
S1130820E82FF0E0EE0FFF1FE956FE4F9081992369
S113083021F09091BF019923E1F080E00E94B00182
S11308408091BF018F5F8093BF019091960121E158
S113085030E0291B31098217130619F014F01092A5
S1130860BF018091C0018F5F843130F48093C00157
S113087006C00E94B001E4CF81E08093C001FF91E3
S1130880EF91BF91AF919F918F917F916F915F9104
S11308904F913F912F910F900FBE0F901F9018957D
S11308A01F920F920FB60F9211240F900FBE0F904C
S11308B01F9018951F920F920FB60F9211242F9329
S11308C03F934F935F936F937F938F939F93AF93D4
S11308D0BF93EF93FF930E94A9068091C50181FF06
S11308E02AC080919201873010F010929201809179
S11308F092018F5F809392018091C3018F5F8093F7
S1130900C3018091C6019091C70101969093C701DC
S11309108093C601FF91EF91BF91AF919F918F9109
S11309207F916F915F914F913F912F910F900FBEE7
S11309300F901F901895809192018630C0F210920A
S11309409201D5CF1F920F920FB60F9211248F935D
S11309509F93EF93FF938091CA019091C600E82F73
S1130960F0E0E752FE4F908391E0980F893F59F0F1
S11309709093CA01FF91EF919F918F910F900FBEB9
S11309800F901F9018951092CA01F4CF1092C500D1
S113099086E18093C40088E98093C1000895459A54
S11309A093E09093D801EFEEF3E23197F1F700C0B2
S11309B00000E0ECF0E0908195FFFDCF8093C6004D
S11309C00895CF93DF93C82FD92F8881882331F0DE
S11309D021960E94CF0489918111FBCFDF91CF91A1
S11309E00895CF93CDEC8C9FC12D1124C695C69547
S11309F0C6959C2F990F990FC90FCC0F982F9C1B4C
S1130A00C92F8A3030F480E38C0F0E94CF04CF9139
S1130A1008959DEC899F812D112486958695869550
S1130A200E94F104F0CF9091D7018091CA018917F7
S1130A3008F48650891B8093C901882309F44BC0AC
S1130A405091DD02652F617050FD45C02091CB01AE
S1130A503091CC018150A3EDB2E015C030E020E02C
S1130A60F901ED52FD4F40832F5F3F4F2530310593
S1130A70A9F09F5F9A3FC1F0882319F14FEF480F07
S1130A8050FD14C0842FE92FF0E0E752FE4F40815F
S1130A904E3321F32530310548F7E2CF4C914E33E4
S1130AA041F751601C92E5CF962FE6CF9093D70182
S1130AB03093CC012093CB015093DD028093C90184
S1130AC008959093D7013093CC012093CB01509398
S1130AD0DD021092C9010895CF93DF930E9413059C
S1130AE08091DD0280FF07C08E7F8093DD028091BC
S1130AF0D4028D3039F19091C50195FFD7C0809112
S1130B00C201833009F4D5C008F09EC0813009F4D5
S1130B10AEC0823009F080C094609093C5018AE031
S1130B200E94CF048CE791E00E94E1048091C5010A
S1130B3082608093C5018AE00E94CF0480E00E9415
S1130B406D00AAC08091D5028330E9F1A8F0843009
S1130B5009F444C0853079F68091D7028D3059F676
S1130B608AE00E94CF0488E491E00E94E10480912D
S1130B70D6020E946D00BFCF8823C1F0813009F0F6
S1130B80BACF8091D7028D3009F0B5CF80E391E0E0
S1130B900E94E104C3EDD2E08B810E94F1048B81B9
S1130BA08093C2018AE00E94CF04A5CF8091D7022E
S1130BB08D3009F0A0CF84E291E00E94E1048AE044
S1130BC00E94CF0498CF8091D7028D3009F093CF43
S1130BD08091C50180628093C5018DCF8091D70239
S1130BE08D3009F088CF80919201809393018AE03F
S1130BF00E94CF048DE391E00E94E1040E944F071C
S1130C0066E070E00E94B9068F5F8093C80180910E
S1130C1093010E94F1046FCF81113EC086E591E0FB
S1130C200E94E1048AE00E94CF048091C501837F81
S1130C308093C501E9E9F1E08FEB91E010823296EF
S1130C40E817F907D9F728C0843009F45AC0863068
S1130C5019F59C609093C501E9E9F1E02FEB31E0CF
S1130C6081E080833296E217F307D9F715C09460C8
S1130C709093C5018AE00E94CF0486E691E00E9429
S1130C80E1048091C5018D7F8093C5018AE00E94B3
S1130C90CF0480E00E946D008091C3018F5F809338
S1130CA0C3018091C5018F7D8093C501DF91CF91F0
S1130CB0089594609093C5018AE00E94CF0486E66B
S1130CC091E00E94E1048091C5018D7F8093C5016C
S1130CD08AE00E94CF048091C50184FF09C081E0AD
S1130CE00E946D008091C5018F7E8093C501D4CF91
S1130CF082E00E946D008091C50180618093C501EE
S1130D00CBCF94609093C5018AE00E94CF048CE716
S1130D1091E00E94E1048091C50182608093C50145
S1130D208AE00E94CF048091C50184FF09C081E05C
S1130D300E946D008091C5018F7E8093C501ACCF68
S1130D4082E00E946D008091C50180618093C5019D
S1130D50A3CF8091D801882349F08091D8018130B4
S1130D6031F08091D80181508093D801089545983D
S1130D70F8CF97FB072E16F4009407D077FD09D01F
S1130D800E94D30607FC05D03EF4909581959F4FB1
S1130D900895709561957F4F0895EE0FFF1F05909C
S1130DA0F491E02D0994AA1BBB1B51E107C0AA1FB3
S1130DB0BB1FA617B70710F0A61BB70B881F991FF8
S1130DC05A95A9F780959095BC01CD010895CF92CD
S1130DD0DF92EF92FF92CF93DF93CDB7DEB72A97DE
S1130DE00FB6F894DEBF0FBECDBF89879A87A98559
S1130DF0BA852D913D914D915C9129833A834B8322
S1130E005C83232B242B252B41F424E239ED4BE581
S1130E1057E029833A834B835C8369817A818B8190
S1130E209C812DE133EF41E050E00E945F076901AE
S1130E307A01A7EAB1E49B01AC010E947E076983B1
S1130E407A838B839C83ACEEB4EFA70196010E9456
S1130E508C079B01AC0189819A81AB81BC81820F93
S1130E60931FA41FB51FB7FF03C00197A109B04882
S1130E70E985FA8580839183A283B3839F772A9639
S1130E800FB6F894DEBF0FBECDBFDF91CF91FF90B8
S1130E90EF90DF90CF9008950E94E706089580E0D8
S1130EA091E00E94E7060895B0E0A0E0809300017D
S1130EB090930101A0930201B09303010895052EBC
S1130EC097FB1EF400940E94760757FD07D00E94FA
S1130ED0910707FC03D04EF40C9476075095409587
S1130EE0309521953F4F4F4F5F4F089590958095D2
S1130EF0709561957F4F8F4F9F4F08950E94B30760
S1130F00A59F900DB49F900DA49F800D911D112459
S1130F100895B7FF0C947E070E947E07821B930BF3
S1130F200895A1E21A2EAA1BBB1BFD010DC0AA1F26
S1130F30BB1FEE1FFF1FA217B307E407F50720F03E
S1130F40A21BB30BE40BF50B661F771F881F991FB9
S1130F501A9469F760957095809590959B01AC0102
S1130F60BD01CF010895A29FB001B39FC001A39F0B
S1130F70700D811D1124911DB29F700D811D1124CE
S10B0F80911D0895F894FFCFC0
S1130F880100000054656D70616E7A6569676520BB
S1130F98756E64205775657266656C205665722097
S1130FA8302E340056657273696F6E20302E34000B
S1130FB85775657266656C6D6F64653A007775651B
S1130FC87266656C6E3A20004D756C7469706C615C
S1130FD87965723A200054454D50414E5A45494767
S1130FE84520414E3A005775657266656C2053700A
S1130FF8657A69616C6D6F64652036005775657232
S113100866656C205370657A69616C6D6F646520E0
S105101837009B
S9030000FC
