S0130000546865726D6F6D657465722E7372656385
S11300000C944E000C946B000C946B000C946B00DD
S11300100C946B000C946B000C946B000C946B00B0
S11300200C946B000C9475040C946B000C946B0092
S11300300C946B000C946B000C946B040C946B008C
S11300400C9418040C946B000C949F040C946B0097
S11300500C946B000C946B000C946B000C946B0070
S11300600C946B000C946B00810085008B00930052
S11300709D00A900B7004E01580162016C01760190
S113008080018A0194019E01A801B201BC01C6014C
S1130090D001DA01E401EE01F801020211241FBECD
S11300A0CFEFD4E0DEBFCDBF11E0A0E0B1E0E4EEDD
S11300B0F9E002C005900D92A435B107D9F722E00A
S11300C0A4E5B1E001C01D92A839B207E1F70E948E
S11300D002030C94F0040C940000EDE7F1E02BE82B
S11300E031E010823296E217F307D9F790E0FC0171
S11300F03197E730F10508F049C0EC5CFF4F0C94F0
S1130100D60481E080937D01089581E0809383018A
S113011080938701089581E080937D01809383011A
S113012080938701089581E0809383018093850102
S11301308093870180938901089581E080937D01F4
S11301408093830180938501809387018093890143
S1130150089581E080937F018093810180938301DE
S1130160809385018093870180938901089581E0BC
S113017080937D0180937F0180938101809383012B
S11301808093850180938701809389010895EDE729
S1130190F1E02BE831E010823296E217F307D9F749
S11301A08330E1F028F4813049F0823079F0089509
S11301B0853021F1D8F0863049F1089581E08093AB
S11301C07D0180937F0180938101089581E0809374
S11301D07D018093850180938901089581E0809356
S11301E07D018093830180938701089581E080934A
S11301F07D0180937F0180938101089581E0809344
S11302007D018093850180938901089581E0809325
S11302107D0180938301809387010895CF9386178E
S11302209707F0F4E9E6F1E02DE731E01082329629
S1130230E217F307D9F714C09A012E0F3F1F821754
S1130240930740F09B012E0F3F1F2817390710F02A
S1130250C08301C010823296EA17FB0769F711C008
S1130260E9E6F1E027E631E0ADE7B1E0A901409528
S11302705095460F571F621B730B6F5F7F4FC1E092
S1130280DBCFCF91089590E0FC013197E331F10584
S113029008F0C2C0E55CFF4F0C94D604229A219862
S11302A0209857985E9A5D985C985B985A98089540
S11302B0229A2198209857985E985D9A5C985B984A
S11302C05A980895229A2198209857985E985D9894
S11302D05C9A5B985A980895229A21982098579886
S11302E05E985D985C985B9A5A980895229A219832
S11302F0209857985E985D985C985B985A9A0895F0
S11303002298219A209857985E9A5D985C985B98F9
S11303105A9808952298219A209857985E985D9A41
S11303205C985B985A9808952298219A2098579837
S11303305E985D985C9A5B985A9808952298219AE1
S1130340209857985E985D985C985B9A5A9808959F
S11303502298219A209857985E985D985C985B98AB
S11303605A9A089522982198209A57985E9A5D98EF
S11303705C985B985A98089522982198209A5798E7
S11303805E985D9A5C985B985A9808952298219893
S1130390209A57985E985D985C9A5B985A9808954D
S11303A022982198209A57985E985D985C985B9A59
S11303B05A98089522982198209A57985E985D98A3
S11303C05C985B985A9A0895229821982098579A95
S11303D05E9A5D985C985B985A9808952298219843
S11303E02098579A5E985D9A5C985B985A980895FD
S11303F0229821982098579A5E985D985C9A5B9809
S11304005A980895229821982098579A5E985D9852
S11304105C985B9A5A980895229821982098579846
S11304205E985D985C985B985A98089514B81BB8C8
S113043080E287B918B88CE78AB980E68BB9089549
S113044081E085BD14BC17BC18BC16BCEEE6F0E018
S113045080818160808386E08093B100E0E7F0E0F2
S113046080818160808388EC80937C0085E8809320
S11304707A0010927B0008951092C50086E1809363
S1130480C40088E98093C10086E08093C200089587
S1130490459A93E090936501EFEEF3E23197F1F71B
S11304A000C00000E0ECF0E0908195FFFDCF809368
S11304B0C6000895CF93DF93EC018881882331F03F
S11304C021960E94480289918111FBCFDF91CF913F
S11304D00895CF932DEC829F212D112426952695E6
S11304E02695220F922F990F990F290F982F921B5F
S11304F0292F90E0821B91096AE070E00E94C204F7
S1130500C22FC063662319F0862F0E9469028C2FC4
S11305100E944802CF910895CF93FC012AE030E075
S1130520B9010E94C204482FCF01841B9109B9016B
S11305300E94C204C42FC0636115710519F0CB0178
S11305400E948C028C2F0E944802CF910895CF9371
S11305508091630130915601381708F43650381BE6
S113056030935401332309F44BC05091970250FD4A
S113057047C02091630180915701909158013150F7
S1130580C0E070E0ABE8B2E060E0E22FF0E0EF56EC
S1130590FE4F40814E3321F08530910540F402C076
S11305A08C2F972FFC01E557FD4F40830196853032
S11305B0910529F44C914E3311F41C9251602F5F34
S11305C02A3F09F4262F31110BC020936301909325
S11305D0580180935701509397023093540110C0EF
S11305E04FEF430F50FD02C0342FCFCF2093630150
S11305F0909358018093570150939702309354017C
S1130600CF910895109266010E9416020E94200262
S11306100E943C02789480E091E00E945A0200E03B
S113062010E0312C412C0F2EFCE8CF2EF2E0DF2E0F
S1130630F02D0F2EFDE86F2EF2E07F2EF02D5524C5
S113064053940F2EFAE7EF2EF12CF02DCDE8D1E0E4
S11306500F2EF8E7AF2EB12CF02D0F2EF9E78F2EC9
S1130660912CF02D0E94A7028091970280FF84C0F4
S11306708E7F80939702D6018C918D3009F07CC0D7
S1130680F3018081823091F128F4882351F0813084
S1130690B1F072C0833009F440C0843009F45CC006
S11306A06BC0AFE8B2E08C918D3009F065C082E197
S11306B091E00E945A028AE00E9448025DC0EFE87D
S11306C0F2E080818D3009F057C083E291E00E940E
S11306D05A028AE00E944802AEE8B2E0EC91F0E0EF
S11306E0EE0FFF1FE959FE4F508246C0EFE8F2E0DB
S11306F080818D3009F040C08AE291E00E945A0264
S11307008AE00E944802AEE8B2E0EC91F0E0EE0F1D
S1130710FF1FE959FE4F10822FC0EFE8F2E08081FD
S11307208D3051F5209055018AE00E94480282E301
S113073091E00E945A02822D0E946902822D0E9439
S11307406D008AE00E9448028BE391E00E945A0205
S11307508AE00E94480210C0AFE8B2E08C918D306C
S113076059F48AE00E94480287E491E00E945A0208
S11307700F2EF5E03F2EF02D80919502823349F43F
S1130780F701808180648083809195028F5F8093DC
S1130790950280919502803481F4332071F0842D88
S11307A00E94C700809195028F5F809395024394C5
S11307B0F6E0F41510F43A94452C809195028823C0
S11307C014F0588201C0188280919502863459F43D
S11307D0D5010C91F401808110E0182B80919502D1
S11307E08F5F8093950280919502843689F484E525
S11307F00E944802C8010E948C028AE30E944802B7
S11308008AE00E944802809195028F5F809395024E
S113081080919502883C09F025CF6AE471E0C80113
S11308200E940E01809195028F5F809395021ACFEA
S11308301F920F920FB60F9211242F933F934F9351
S11308405F936F937F938F939F93AF93BF93EF9334
S1130850FF9380919001E82FF0E0EE0FFF1FE9591C
S1130860FE4F9081992339F090918F01911103C02B
S11308700E94430103C080E00E94430120918F0144
S11308802F5F20938F0130E04091660181E190E079
S1130890841B91098217930714F410928F0180919D
S11308A090018F5F843118F48093900103C081E03C
S11308B080939001FF91EF91BF91AF919F918F91A0
S11308C07F916F915F914F913F912F910F900FBE48
S11308D00F901F9018951F920F920FB60F9211242C
S11308E00F900FBE0F901F9018951F920F920FB686
S11308F00F9211248F93809195028F5F80939502BC
S113090080916501882351F080916501813009F45B
S113091045988091650181508093650180915501CE
S1130920863010F010925501809155018F5F8093AD
S113093055018F910F900FBE0F901F9018951F9225
S11309400F920FB60F9211248F939F93EF93FF93FF
S1130950809156019091C600E82FF0E0EF56FE4FCB
S113096090838F5F8A3F19F08093560102C01092E2
S11309705601FF91EF919F918F910F900FBE0F90B1
S11309801F90189597FB072E16F4009407D077FD57
S113099009D00E94DC0407FC05D03EF490958195B3
S11309A09F4F0895709561957F4F0895EE0FFF1F37
S11309B00590F491E02D0994AA1BBB1B51E107C0DB
S11309C0AA1FBB1FA617B70710F0A61BB70B881FDB
S11309D0991F5A95A9F780959095BC01CD0108956A
S10709E0F894FFCFB5
S11309E454656D70616D70656C2056657220302E8F
S11309F43200434E54522056657273696F6E203030
S1130A042E32004C454420414E004C45442041556F
S1130A14530057FC7266656C3A200057FC72666595
S1130A246C20546573740064726568656E20616E2D
S1070A343A20000060
S9030000FC
