:100000000C944E000C946B000C946B000C946B00E1
:100010000C946B000C946B000C946B000C946B00B4
:100020000C946B000C942E050C946B000C946B00DC
:100030000C946B000C946B000C9424050C946B00D6
:100040000C94D1040C946B000C946E050C946B0012
:100050000C946B000C946B000C946B000C946B0074
:100060000C946B000C946B00810085008B00930056
:100070009D00A900B700870191019B01A501AF0177
:10008000B901C301CD01D701E101EB01F501FF0188
:10009000090213021D02270231023B0211241FBE76
:1000A000CFEFD4E0DEBFCDBF11E0A0E0B1E0E4E0EF
:1000B000FDE002C005900D92A038B107D9F722E00B
:1000C000A0E8B1E001C01D92AB3CB207E1F70E948D
:1000D00068030C9480060C940000EBEAF1E029EB35
:1000E00031E010823296E217F307D9F790E0FC0175
:1000F0003197E730F10508F049C0EC5CFF4F0C94F4
:10010000A50581E08093AB01089581E08093B10162
:100110008093B501089581E08093AB018093B10194
:100120008093B501089581E08093B1018093B3017C
:100130008093B5018093B701089581E08093AB016E
:100140008093B1018093B3018093B5018093B7018F
:10015000089581E08093AD018093AF018093B10158
:100160008093B3018093B5018093B701089581E036
:100170008093AB018093AD018093AF018093B10177
:100180008093B3018093B5018093B7010895EBEAA2
:10019000F1E029EB31E010823296E217F307D9F74C
:1001A0008330E1F028F4813049F0823079F008950D
:1001B000853021F1D8F0863049F1089581E08093AF
:1001C000AB018093AD018093AF01089581E08093EE
:1001D000AB018093B3018093B701089581E08093D0
:1001E000AB018093B1018093B501089581E08093C4
:1001F000AB018093AD018093AF01089581E08093BE
:10020000AB018093B3018093B701089581E080939F
:10021000AB018093B1018093B50108954091C7026D
:100220005091C80221E030E0082E02C0220F331F97
:100230000A94E2F724233523A90102C05695479575
:100240008A95E2F7CA01892BC9F01092C802109270
:10025000C7028091BF010E94C7008091BF018F5FDC
:100260008093BF018091BF01873040F081E080938F
:10027000BF018091CA0281508093CA028091CA0254
:10028000811104C080918F010E946D000895CF9369
:1002900086179707F0F4E7E9F1E02BEA31E01082E6
:1002A0003296E217F307D9F714C09A012E0F3F1FB9
:1002B0008217930740F09B012E0F3F1F2817390725
:1002C00010F0C08301C010823296EA17FB0769F76D
:1002D00011C0E7E9F1E025E931E0ABEAB1E0A901BD
:1002E00040955095460F571F621B730B6F5F7F4FF2
:1002F000C1E0DBCFCF91089590E0FC013197E3316D
:10030000F10508F0C2C0E55CFF4F0C94A505229AE8
:100310002198209857985E9A5D985C985B985A98B7
:100320000895229A2198209857985E985D9A5C9833
:100330005B985A980895229A2198209857985E9829
:100340005D985C9A5B985A980895229A2198209813
:1003500057985E985D985C985B9A5A980895229A8F
:100360002198209857985E985D985C985B985A9A67
:1003700008952298219A209857985E9A5D985C98E3
:100380005B985A9808952298219A209857985E98D9
:100390005D9A5C985B985A9808952298219A2098C3
:1003A00057985E985D985C9A5B985A980895229841
:1003B000219A209857985E985D985C985B9A5A9815
:1003C00008952298219A209857985E985D985C9895
:1003D0005B985A9A089522982198209A57985E9A85
:1003E0005D985C985B985A98089522982198209A75
:1003F00057985E985D9A5C985B985A9808952298F1
:100400002198209A57985E985D985C9A5B985A98C4
:10041000089522982198209A57985E985D985C9844
:100420005B9A5A98089522982198209A57985E9836
:100430005D985C985B985A9A089522982198209824
:10044000579A5E9A5D985C985B985A98089522989E
:1004500021982098579A5E985D9A5C985B985A9874
:100460000895229821982098579A5E985D985C9AF2
:100470005B985A980895229821982098579A5E98E8
:100480005D985C985B9A5A980895229821982098D4
:1004900057985E985D985C985B985A98089587E0A5
:1004A00084B91BB880E287B984E188B98CE78AB93E
:1004B0001BB8089581E085BD14BC17BC18BC16BCE0
:1004C000EEE6F0E080818160808386E08093B10079
:1004D000E0E7F0E080818160808388EC80937C009D
:1004E00085E880937A0010927B0008951092C500F1
:1004F00086E18093C40088E98093C10086E0809300
:10050000C2000895459A93E090939301EFEEF3E2D1
:100510003197F1F700C00000E0ECF0E0908195FF2A
:10052000FDCF8093C6000895CF93DF93EC018881BF
:10053000882331F021960E94820289918111FBCF9C
:10054000DF91CF910895CF932DEC829F212D11241F
:10055000269526952695220F922F990F990F290FF0
:10056000982F921B292F90E0821B91096AE070E07E
:100570000E949105C22FC063662319F0862F0E9446
:10058000A3028C2F0E948202CF9108959091C602FF
:10059000292F24602093C6022091810120938F018E
:1005A000813049F018F08230D9F02DC010929201BC
:1005B0001092C50228C09F7E94609093C60281E08D
:1005C0008093B9011092BB018091920190918F01AB
:1005D000890F80939201809192010E94A30213C01F
:1005E00094619093C6021092B90181E08093BB019F
:1005F0008091C50290918F01890F8093C5028091EF
:10060000C5020E94A3020E940D0666E070E00E94EF
:1006100091058F5F8093CA020895CF9380919001D6
:1006200030918201381708F43650381B309380011E
:10063000332309F44BC05091C90250FD47C02091AB
:10064000900180918301909184013150C0E070E06D
:10065000AAEBB2E060E0E22FF0E0E054FE4F408110
:100660004E3321F08530910540F402C08C2F972F36
:10067000FC01E654FD4F408301968530910529F435
:100680004C914E3311F41C9251602F5F2A3F09F4B4
:10069000262F31110BC020939001909384018093F9
:1006A00083015093C9023093800110C04FEF430F74
:1006B00050FD02C0342FCFCF20939001909384013E
:1006C000809383015093C90230938001CF910895A4
:1006D000109294011092BF010E944F020E945A0290
:1006E0000E947602789481E08093970184E091E003
:1006F0000E949402A12CB12C0F2EFBEBCF2EF2E026
:10070000DF2EF02D0AE710E00F2EF5E98F2EF1E035
:100710009F2EF02D0F2EFBEA6F2EF1E07F2EF02D95
:1007200044244394512C212C312C0F2EF7E9EF2E29
:10073000F1E0FF2EF02D0E940D038091C90280FF91
:1007400094C08E7F8093C902F60180818D3009F0BC
:100750008CC0ECEBF2E08081823079F128F48823C0
:1007600059F08130B9F081C0843009F44FC0C0F134
:10077000853009F469C079C0EEEBF2E080818D30FC
:1007800009F073C084E291E00E9494028AE00E9422
:1007900082026BC0EEEBF2E080818D3009F065C023
:1007A00080E391E00E9494028AE00E94820280919C
:1007B000C602837F8093C60258C0EEEBF2E08081D0
:1007C0008D3009F052C080E491E00E9494028AE0EA
:1007D0000E9482028091C60284608093C60245C056
:1007E000EEEBF2E080818D3009F03FC08AE00E949C
:1007F000820280E591E00E9494028091C6028260AC
:100800008093C6028AE00E9482022FC0EEEBF2E0E3
:1008100080818D3051F58091810180938F018AE034
:100820000E94820286E691E00E9494020E940D06D8
:1008300066E070E00E9491058F5F8093CA0280910C
:100840008F010E94A30211C0EEEBF2E080818D3097
:1008500061F48AE00E94820281E791E00E949402A2
:10086000EDEBF2E080810E94C6028091C4028431E7
:1008700049F4F8018081806480838091C4028F5F95
:100880008093C4028091C402863469F4E8E7F0E002
:10089000A080E9E7F0E08081B12CB82A8091C40201
:1008A0008F5F8093C4028091C60282FF0CC083FDDB
:1008B00018C088608093C602F40110823296E61553
:1008C000F705D9F70EC08091C402883C51F46AE460
:1008D00071E0C5010E9447018091C4028F5F80933F
:1008E000C4023091CA022091C60223FBFF27F0F90F
:1008F000CF2F80E0D82F842D952D313011F0822D0F
:10090000932D8C239D23892B09F442C0F70110827B
:100910003296E615F705D9F724FD08C080919201BB
:1009200090E00A9718161906F4F032C08091C502BB
:1009300090E00A97181619065CF5842D952D41E074
:1009400051E0FC01EE0FFF1FEB56FE4F50834F5F4F
:10095000842F90E02091C50230E02A5031092817F9
:1009600039077CF715C0842D952D41E051E0FC013D
:10097000EE0FFF1FEB56FE4F50834F5F842F90E02A
:100980002091920130E02A503109281739077CF76D
:100990008091CA02882309F4CECE83E00E940E0122
:1009A000CACE1F920F920FB60F9211242F933F932E
:1009B0004F935F936F937F938F939F93AF93BF9367
:1009C000EF93FF938091BE01E82FF0E0EE0FFF1F41
:1009D000EB56FE4F9081992339F09091BD01911112
:1009E00003C00E947C0103C080E00E947C01209132
:1009F000BD012F5F2093BD0130E04091940181E162
:100A000090E0841B91098217930714F41092BD01A2
:100A10008091BE018F5F843118F48093BE0103C0C2
:100A200081E08093BE01FF91EF91BF91AF919F91C3
:100A30008F917F916F915F914F913F912F910F9087
:100A40000FBE0F901F9018951F920F920FB60F9226
:100A500011240F900FBE0F901F9018951F920F92A8
:100A60000FB60F9211248F939F9380919301882347
:100A700051F080919301813009F445988091930160
:100A80008150809393018091C60281FF07C08091BD
:100A90008101873048F01092810106C08091810168
:100AA000863010F010928101809181018F5F8093D8
:100AB00081018091C4028F5F8093C4028091C7023C
:100AC0009091C80201969093C8028093C7029F91AB
:100AD0008F910F900FBE0F901F9018951F920F923D
:100AE0000FB60F9211248F939F93EF93FF938091F2
:100AF00082019091C600E82FF0E0E054FE4F908311
:100B00008F5F8A3F19F08093820102C010928201A8
:100B1000FF91EF919F918F910F900FBE0F901F90BB
:100B2000189597FB072E16F4009407D077FD09D08F
:100B30000E94AB0507FC05D03EF4909581959F4F30
:100B40000895709561957F4F0895EE0FFF1F0590F2
:100B5000F491E02D0994AA1BBB1B51E107C0AA1F09
:100B6000BB1FA617B70710F0A61BB70B881F991F4E
:100B70005A95A9F780959095BC01CD0108958F9263
:100B80009F92AF92BF92CF92DF92EF92FF92CF935C
:100B9000DF93EC01688179818A819B816115710500
:100BA0008105910521F464E279ED8BE597E02DE173
:100BB00033EF41E050E00E941D0649015A019B01BC
:100BC000AC01A7EAB1E40E943C066B017C01ACEEEB
:100BD000B4EFA50194010E944A06C60ED71EE81E76
:100BE000F91EF7FE06C081E0C81AD108E10880E8C6
:100BF000F80AC882D982EA82FB82C6019F77DF9118
:100C0000CF91FF90EF90DF90CF90BF90AF909F90EB
:100C10008F9008950E94BF05089580E091E00E94A2
:100C2000BF050895A0E0B0E080930001909301011A
:100C3000A0930201B09303010895052E97FB1EF4C3
:100C400000940E94340657FD07D00E944F0607FC0F
:100C500003D04EF40C943406509540953095219570
:100C60003F4F4F4F5F4F08959095809570956195D8
:100C70007F4F8F4F9F4F08950E947106A59F900D43
:100C8000B49F900DA49F800D911D11240895B7FF6E
:100C90000C943C060E943C06821B930B0895A1E233
:100CA0001A2EAA1BBB1BFD010DC0AA1FBB1FEE1FE6
:100CB000FF1FA217B307E407F50720F0A21BB30B31
:100CC000E40BF50B661F771F881F991F1A9469F7AD
:100CD00060957095809590959B01AC01BD01CF0109
:100CE0000895A29FB001B39FC001A39F700D811D05
:100CF0001124911DB29F700D811D1124911D089525
:040D0000F894FFCF95
:100D04000100000054656D70616E7A656967652045
:100D1400756E64205775657266656C205665722021
:100D2400302E330056657273696F6E20302E330097
:100D340054454D50414E5A4549474520414E3A008D
:100D440054454D50414E5A4549474520415553005D
:100D54005775657266656C205370657A69616C6D50
:100D64006F64652037007775657266656C6E3A202E
:100D7400004D756C7469706C617965723A2000007D
:00000001FF
