S0130000546865726D6F6D657465722E7372656385
S11300000C944E000C946B000C946B000C946B00DD
S11300100C946B000C946B000C946B000C946B00B0
S11300200C946B000C9476040C946B000C946B0091
S11300300C946B000C946B000C946C040C946B008B
S11300400C9419040C946B000C94B6040C946B007F
S11300500C946B000C946B000C946B000C946B0070
S11300600C946B000C946B00810085008B00930052
S11300709D00A900B7004E01580162016C01760190
S113008080018A0194019E01A801B201BC01C6014C
S1130090D001DA01E401EE01F801020211241FBECD
S11300A0CFEFD4E0DEBFCDBF11E0A0E0B1E0E2E1EC
S11300B0FAE002C005900D92A636B107D9F722E006
S11300C0A6E6B1E001C01D92AE3AB207E1F70E9484
S11300D024030C9407050C940000EFE8F1E02DE9EB
S11300E031E010823296E217F307D9F790E0FC0171
S11300F03197E730F10508F049C0EC5CFF4F0C94F0
S1130100ED0481E080938F01089581E0809395014F
S113011080939901089581E080938F0180939501E4
S113012080939901089581E08093950180939701CC
S11301308093990180939B01089581E080938F01BE
S113014080939501809397018093990180939B01FB
S1130150089581E0809391018093930180939501A8
S1130160809397018093990180939B01089581E086
S113017080938F01809391018093930180939501E3
S1130180809397018093990180939B010895EFE8F0
S1130190F1E02DE931E010823296E217F307D9F746
S11301A08330E1F028F4813049F0823079F0089509
S11301B0853021F1D8F0863049F1089581E08093AB
S11301C08F018093910180939301089581E080933E
S11301D08F018093970180939B01089581E0809320
S11301E08F018093950180939901089581E0809314
S11301F08F018093910180939301089581E080930E
S11302008F018093970180939B01089581E08093EF
S11302108F0180939501809399010895CF93861758
S11302209707F0F4EBE7F1E02FE831E01082329623
S1130230E217F307D9F714C09A012E0F3F1F821754
S1130240930740F09B012E0F3F1F2817390710F02A
S1130250C08301C010823296EA17FB0769F711C008
S1130260EBE7F1E029E731E0AFE8B1E0A90140951F
S11302705095460F571F621B730B6F5F7F4FC1E092
S1130280DBCFCF91089590E0FC013197E331F10584
S113029008F0C2C0E55CFF4F0C94ED04229A21984B
S11302A0209857985E9A5D985C985B985A98089540
S11302B0229A2198209857985E985D9A5C985B984A
S11302C05A980895229A2198209857985E985D9894
S11302D05C9A5B985A980895229A21982098579886
S11302E05E985D985C985B9A5A980895229A219832
S11302F0209857985E985D985C985B985A9A0895F0
S11303002298219A209857985E9A5D985C985B98F9
S11303105A9808952298219A209857985E985D9A41
S11303205C985B985A9808952298219A2098579837
S11303305E985D985C9A5B985A9808952298219AE1
S1130340209857985E985D985C985B9A5A9808959F
S11303502298219A209857985E985D985C985B98AB
S11303605A9A089522982198209A57985E9A5D98EF
S11303705C985B985A98089522982198209A5798E7
S11303805E985D9A5C985B985A9808952298219893
S1130390209A57985E985D985C9A5B985A9808954D
S11303A022982198209A57985E985D985C985B9A59
S11303B05A98089522982198209A57985E985D98A3
S11303C05C985B985A9A0895229821982098579A95
S11303D05E9A5D985C985B985A9808952298219843
S11303E02098579A5E985D9A5C985B985A980895FD
S11303F0229821982098579A5E985D985C9A5B9809
S11304005A980895229821982098579A5E985D9852
S11304105C985B9A5A980895229821982098579846
S11304205E985D985C985B985A98089587E084B9C3
S11304301BB880E287B984E188B98CE78AB91BB814
S1130440089581E085BD14BC17BC18BC16BCEEE64B
S1130450F0E080818160808386E08093B100E0E7F2
S1130460F0E080818160808388EC80937C0085E863
S113047080937A0010927B0008951092C50086E163
S11304808093C40088E98093C10086E08093C20011
S11304900895459A93E090937701EFEEF3E2319754
S11304A0F1F700C00000E0ECF0E0908195FFFDCF93
S11304B08093C6000895CF93DF93EC01888188234D
S11304C031F021960E94490289918111FBCFDF917D
S11304D0CF910895CF932DEC829F212D1124269541
S11304E026952695220F922F990F990F290F982F51
S11304F0921B292F90E0821B91096AE070E00E9410
S1130500D904C22FC063662319F0862F0E946A02A1
S11305108C2F0E944902CF910895CF93C62F40910A
S1130520AA025091AB0221E030E0082E02C0220F53
S1130530331F0A94E2F72423352302C03695279506
S11305408A95E2F7232BC9F01092AB021092AA020B
S11305508091A3010E94C7008091A3018F5F8093C3
S1130560A3018091A301873040F081E08093A3012F
S11305708091AD0281508093AD029091AD029111B2
S113058006C08C2F0E946D008C2F0E946A02CF91AE
S11305900895CF938091750130916801381708F45C
S11305A03650381B30936601332309F44BC0509105
S11305B0AC0250FD47C02091750180916901909172
S11305C06A013150C0E070E0AEE9B2E060E0E22FD1
S11305D0F0E0EC55FE4F40814E3321F0853091051B
S11305E040F402C08C2F972FFC01E256FD4F40834C
S11305F001968530910529F44C914E3311F41C92E7
S113060051602F5F2A3F09F4262F31110BC020932C
S1130610750190936A01809369015093AC02309301
S1130620660110C04FEF430F50FD02C0342FCFCFEF
S11306302093750190936A01809369015093AC02F1
S113064030936601CF910895109278011092A3011E
S11306500E9416020E9421020E943D02789481E0C9
S113066080937B0180E091E00E945B02C12CD12C3D
S11306700F2EFFE9EF2EF2E0FF2EF02D0F2EF0EA01
S11306804F2EF2E05F2EF02D0F2EF2EA2F2EF2E025
S11306903F2EF02D0AE710E00F2EF8E7AF2EB12C15
S11306A0F02D0F2EF9E78F2E912CF02D0F2EF9E758
S11306B06F2EF1E07F2EF02DCFE8D1E00E94C90229
S11306C08091AC0280FF70C08E7F8093AC02F701F2
S11306D080818D3009F068C0F2018081823081F11F
S11306E028F4882349F08130A1F05EC08330C9F139
S11306F0843009F44AC058C0F10180818D3009F07A
S113070053C080E291E00E945B028AE00E944902A9
S11307104BC0F10180818D3009F046C08CE291E03C
S11307200E945B02E1EAF2E080810E946A028AE0B0
S11307300E944902E1EAF2E080810E94C70034C0CD
S1130740F10180818D3081F584E391E00E945B02A8
S11307508AE00E9449028091A90284608093A902E0
S113076023C0F10180818D30F9F48AE00E944902AE
S113077084E491E00E945B028091A90282608093EC
S1130780A9028AE00E9449020FC0F10180818D30E4
S113079059F48AE00E9449028AE591E00E945B02D2
S11307A0809167018093AD028091A802843149F45D
S11307B0F8018081806480838091A8028F5F809398
S11307C0A8028091A802863459F4F501C080F4018E
S11307D08081D12CD82A8091A8028F5F8093A802AF
S11307E08091A90282FF0CC083FD18C088608093A9
S11307F0A902F30110823296EC17FD07D9F70EC057
S11308008091A802883C51F46AE471E0C6010E9418
S11308100E018091A8028F5F8093A8028091AD029F
S1130820882309F44BCF6091670183E00E948D0215
S113083045CF1F920F920FB60F9211242F933F931F
S11308404F935F936F937F938F939F93AF93BF93D4
S1130850EF93FF938091A201E82FF0E0EE0FFF1FCA
S1130860E758FE4F9081992339F09091A10191119D
S113087003C00E94430103C080E00E944301209111
S1130880A1012F5F2093A10130E04091780181E123
S113089090E0841B91098217930714F41092A1012C
S11308A08091A2018F5F843118F48093A20103C068
S11308B081E08093A201FF91EF91BF91AF919F914D
S11308C08F917F916F915F914F913F912F910F90F5
S11308D00FBE0F901F9018951F920F920FB60F9294
S11308E011240F900FBE0F901F9018951F920F9216
S11308F00FB60F9211248F939F93809177018823D1
S113090051F080917701813009F445988091770105
S11309108150809377018091A90281FF07C0809163
S11309206701873048F01092670106C08091670123
S1130930863010F010926701809167018F5F809379
S113094067018091A8028F5F8093A8028091AA0218
S11309509091AB0201969093AB028093AA029F916F
S11309608F910F900FBE0F901F9018951F920F92AA
S11309700FB60F9211248F939F93EF93FF9380915F
S113098068019091C600E82FF0E0EC55FE4F90838B
S11309908F5F8A3F19F08093680102C0109268014A
S11309A0FF91EF919F918F910F900FBE0F901F9029
S11309B0189597FB072E16F4009407D077FD09D0FD
S11309C00E94F30407FC05D03EF4909581959F4F57
S11309D00895709561957F4F0895EE0FFF1F059060
S11309E0F491E02D0994AA1BBB1B51E107C0AA1F77
S11309F0BB1FA617B70710F0A61BB70B881F991FBC
S1130A005A95A9F780959095BC01CD010895F89465
S1050A10FFCF12
S1130A1254656D70616E7A6569676520756E6420D0
S1130A225775657266656C2056657220302E3200E9
S1130A3256657273696F6E20302E32005A6569678B
S1130A4265723A0054454D50414E5A454947452036
S1130A52415553005775657266656C205370657A0B
S1130A6269616C6D6F646520370064726568656ED8
S1090A7220616E3A200031
S9030000FC
