:100000000C944E000C946B000C946B000C946B00E1
:100010000C946B000C946B000C946B000C946B00B4
:100020000C946B000C944C040C946B000C946B00BF
:100030000C946B000C9431040C9442040C946B00EF
:100040000C94DE030C946B000C94C6040C946B00AF
:100050000C946B000C9492040C946B000C946B0049
:100060000C946B000C946B00D000D400DA00E1001B
:10007000E900F200FC00BA01C401CE01D801E2019E
:10008000EC01F60100020A0214021E0228023202EA
:100090003C02460250025A0264026E0211241FBE44
:1000A000CFEFD4E0DEBFCDBF11E0A0E0B1E0E6ECE1
:1000B000FFE002C005900D92A239B107D9F722E006
:1000C000A2E9B1E001C01D92A03EB207E1F70E9493
:1000D000A2020C94E1070C9400009091C701292F13
:1000E00024602093C7012091920120939301EAE9B3
:1000F000F1E02EEA31E010823296E217F307D9F7E9
:10010000E8E9F1E014A216A2813099F0823021F1E1
:10011000882351F00E946E0766E070E00E94D806C6
:100120008F5F8093CA010895109295011092C601C5
:10013000F1CF9F7E94609093C70181E08093BC01D2
:100140008091950190919301890F80939501809101
:1001500095010E941505DECF94619093C70181E05F
:100160008093BE018091C60190919301890F809385
:10017000C6018091C6010E941505CCCFE8E9F1E0E7
:10018000168A108E128E148E168E10A212A2815014
:100190008730E0F5E82FF0E0EC5CFF4F0C94EC06C4
:1001A00081E08093AE010895E8E9F1E081E0848F79
:1001B00080A30895E8E9F1E081E0868B848F80A335
:1001C0000895E8E9F1E081E0848F868F80A382A31F
:1001D0000895E8E9F1E081E0868B848F868F80A323
:1001E00082A30895E8E9F1E081E0808F828F848F17
:1001F000868F80A382A30895E8E9F1E081E0868BF1
:10020000808F828F848F868F80A382A30895E8E9F0
:10021000F1E0168A108E128E148E168E10A212A283
:10022000843049F1A8F48230F9F0833039F4E8E9F8
:10023000F1E081E0868B848F80A30895813039F4CA
:10024000E8E9F1E081E0868B808F828F0895089540
:100250008530C1F0863039F4E8E9F1E081E0868B41
:10026000848F80A308950895E8E9F1E081E0868B0A
:10027000868F82A30895E8E9F1E081E0868B808F84
:10028000828F0895E8E9F1E081E0868B868F82A372
:100290000895282F4091C8015091C90181E090E054
:1002A000022E02C0880F991F0A94E2F78423952337
:1002B00002C0969587952A95E2F7892B29F48091BB
:1002C000CA018823D9F008951092C9011092C8017B
:1002D0008091C2010E9407018091C2018F5F8093CB
:1002E000C2018091C201873050F381E08093C20146
:1002F0008091CA0181508093CA01E1CF809193011E
:100300000E94BE00E0CF282F392F862F972F281765
:10031000390738F00196EAE9F1E04EEA51E0A1E050
:1003200013C0E8E9F1E01282148216821086128668
:1003300014861686108A128A148AECCF10820296CE
:1003400032964E175F0759F028173907B8F3BC01EA
:100350006E5F7F4F6217730788F3A083F0CF089515
:100360008150833108F0C4C0E82FF0E0E55CFF4F16
:100370000C94EC06229A2198209857985E9A5D98E2
:100380005C985B985A980895229A219820985798DB
:100390005E985D9A5C985B985A980895229A219885
:1003A000209857985E985D985C9A5B985A98089543
:1003B000229A2198209857985E985D985C985B9A4D
:1003C0005A980895229A2198209857985E985D9897
:1003D0005C985B985A9A08952298219A2098579889
:1003E0005E9A5D985C985B985A9808952298219A35
:1003F000209857985E985D9A5C985B985A980895F3
:100400002298219A209857985E985D985C9A5B98FC
:100410005A9808952298219A209857985E985D9846
:100420005C985B9A5A9808952298219A2098579838
:100430005E985D985C985B985A9A089522982198E6
:10044000209A57985E9A5D985C985B985A980895A0
:1004500022982198209A57985E985D9A5C985B98AC
:100460005A98089522982198209A57985E985D98F6
:100470005C9A5B985A98089522982198209A5798E8
:100480005E985D985C985B9A5A9808952298219896
:10049000209A57985E985D985C985B985A9A089550
:1004A000229821982098579A5E9A5D985C985B985C
:1004B0005A980895229821982098579A5E985D9AA4
:1004C0005C985B985A980895229821982098579A9A
:1004D0005E985D985C9A5B985A9808952298219846
:1004E0002098579A5E985D985C985B9A5A98089500
:1004F00022982198209857985E985D985C985B9810
:100500005A98089587E084B91BB880E287B984E1DE
:1005100088B98CE78AB91BB8089581E085BD8093BE
:100520006E0095E09093810080936F0097E0909328
:10053000B1008093700088EE80937C008EE88093F9
:100540007A0008950E94A704109297011092C201A8
:100550000E9482020E948D020E94EA04789481E047
:1005600080939A0184E091E00E94050500EC11E07F
:100570000F2EFAE7EF2EF12CF02D0F2EF8E9CF2EEB
:10058000F1E0DF2EF02DCEEAD1E0AA24A394B12C25
:10059000A3C0911123C0837F8093C701EAE9F1E0F2
:1005A00010823296E017F107D9F718C0943009F499
:1005B00056C0963099F48C608093C701EAE9F1E067
:1005C00081E080833296E017F107D9F707C08D7F6D
:1005D00084608093C70180E00E946D008091C70114
:1005E0008F7B8093C7018091C70188230CF44FC093
:1005F0008091C70182FF60C083FF53C09091CA0100
:10060000911166C09091C301933008F461C084FFDA
:10061000A8C08091C6018B3008F087C08091C501C9
:1006200084FF9CC081E0F601828352C0982F9D7F99
:1006300094609093C70184FF09C081E00E946D001F
:100640008091C7018F7E8093C701C8CF82E00E944E
:100650006D008091C70180618093C701BFCF982F43
:1006600096609093C70184FF09C081E00E946D00ED
:100670008091C7018F7E8093C701B0CF82E00E9436
:100680006D008091C70180618093C701A7CFF701FA
:100690008081806480838091C7018F778093C701B8
:1006A000A7CF88608093C701E8E9F1E01082329615
:1006B000EC17FD07D9F704C08091C40180FD28C064
:1006C0008091CA01811104C08091C70183FD9ACF36
:1006D0008091CA0181116EC00E9490058091C7016E
:1006E00086FF81CF34997FCF9091C301933009F475
:1006F0009DCF08F05BCF913009F469CF923009F0BB
:1007000048CF86608093C70180E00E946D0066CF6D
:10071000809196016BE470E090E00E9483018091EB
:10072000C4018E7F8093C401CBCF8091C6018B30F2
:1007300078F221E08A2D9B2D31E0880F991FFC0172
:10074000E856FE4F30832F5F4091C601822F90E024
:100750004950550B2417150684F3BACFF6011282BF
:10076000B7CF809195018B3040F48091C50184FF13
:100770001EC081E0F6018283ABCF809195018B3062
:1007800008F4A6CF21E08A2D9B2D31E0880F991F18
:10079000FC01E856FE4F30832F5F40919501822F78
:1007A00090E04950550B2417150684F391CFF601BC
:1007B00012828ECF83E00E9449018ECF1F920F924A
:1007C0000FB60F9211242F933F934F935F936F9324
:1007D0007F938F939F93AF93BF93EF93FF938091FA
:1007E000C101E82FF0E0EE0FFF1FE856FE4F9081A9
:1007F000992321F09091C0019923E1F080E00E94BB
:10080000B0018091C0018F5F8093C00190919701EA
:1008100021E130E0291B31098217130619F014F089
:100820001092C0018091C1018F5F843130F48093B8
:10083000C10106C00E94B001E4CF81E08093C101F4
:10084000FF91EF91BF91AF919F918F917F916F91A8
:100850005F914F913F912F910F900FBE0F901F907E
:1008600018951F920F920FB60F9211248F938091BB
:10087000C70180688093C7018F910F900FBE0F90C2
:100880001F9018951F920F920FB60F9211240F9080
:100890000FBE0F901F9018951F920F920FB60F92D8
:1008A00011242F933F934F935F936F937F938F9375
:1008B0009F93AF93BF93EF93FF930E94C8068091DD
:1008C000C70181FF28C090919201973010F01092DB
:1008D000920180648093C701809192018F5F809321
:1008E00092018091C8019091C90101969093C9012C
:1008F0008093C801FF91EF91BF91AF919F918F912C
:100900007F916F915F914F913F912F910F900FBE0B
:100910000F901F901895909192019630D0F21092FE
:100920009201D7CF1F920F920FB60F9211248F937F
:1009300080917900809396018091C40181608093B9
:10094000C4018F910F900FBE0F901F901895F894CF
:1009500042983A9A8FE995E00197F1F700C00000BC
:1009600042983A98E1EDF0E03197F1F700C00000CD
:1009700086B17894EFECF2E03197F1F700C0000017
:1009800082FB882780F991E0892708951F920F92B2
:100990000FB60F9211248F939F93EF93FF93809143
:1009A000CC019091C600E82FF0E0E552FE4F908315
:1009B00091E0980F893F59F09093CC01FF91EF910E
:1009C0009F918F910F900FBE0F901F9018951092CE
:1009D000CC01F4CF1092C5008DE48093C40088E967
:1009E0008093C1000895459A93E09093DA01EFE275
:1009F000F5E73197F1F700C00000E0ECF0E09081FE
:100A000095FFFDCF8093C6000895CF93DF93C82F45
:100A1000D92F8881882331F021960E94F30489918F
:100A20008111FBCFDF91CF910895CF93CDEC8C9FB7
:100A3000C12D1124C695C695C6959C2F990F990F67
:100A4000C90FCC0F982F9C1BC92F8A3030F480E33C
:100A50008C0F0E94F304CF9108959DEC899F812D06
:100A600011248695869586950E941505F0CF909164
:100A7000D9018091CC01891708F48650891B809395
:100A8000CB01882309F44BC05091DF02652F6170C0
:100A900050FD45C02091CD013091CE018150A5ED92
:100AA000B2E015C030E020E0F901EB52FD4F408389
:100AB0002F5F3F4F25303105A9F09F5F9A3FC1F06E
:100AC000882319F14FEF480F50FD14C0842FE92FF0
:100AD000F0E0E552FE4F40814E3321F325303105E1
:100AE00048F7E2CF4C914E3341F751601C92E5CF6D
:100AF000962FE6CF9093D9013093CE012093CD016C
:100B00005093DF028093CB0108959093D9013093E5
:100B1000CE012093CD015093DF021092CB010895B6
:100B2000CF93DF930E9437058091DF0280FF07C0DB
:100B30008E7F8093DF028091D6028D3039F19091C3
:100B4000C70195FFD2C08091C301833009F4D0C0A2
:100B500008F09EC0813009F4AEC0823009F080C038
:100B600094609093C7018AE00E94F3048CE791E0BF
:100B70000E9405058091C70182608093C7018AE0C9
:100B80000E94F30480E00E946D00AAC08091D70209
:100B90008330E9F1A8F0843009F444C0853079F657
:100BA0008091D9028D3059F68AE00E94F30488E4DE
:100BB00091E00E9405058091D8020E946D00BFCF90
:100BC0008823C1F0813009F0BACF8091D9028D30ED
:100BD00009F0B5CF80E391E00E940505C5EDD2E0B4
:100BE0008B810E9415058B818093C3018AE00E944E
:100BF000F304A5CF8091D9028D3009F0A0CF84E213
:100C000091E00E9405058AE00E94F30498CF80914C
:100C1000D9028D3009F093CF8091C7018062809313
:100C2000C7018DCF8091D9028D3009F088CF809196
:100C30009201809393018AE00E94F3048DE391E096
:100C40000E9405050E946E0766E070E00E94D806CB
:100C50008F5F8093CA01809193010E9415056FCF29
:100C600081113EC086E591E00E9405058AE00E9460
:100C7000F3048091C701837F8093C701EAE9F1E023
:100C800080EC91E010823296E817F907D9F728C076
:100C9000843009F455C0863019F59C609093C701E3
:100CA000EAE9F1E020EC31E081E080833296E2175E
:100CB000F307D9F715C094609093C7018AE00E94AA
:100CC000F30486E691E00E9405058091C7018D7FBF
:100CD0008093C7018AE00E94F30480E00E946D00C7
:100CE0008091C7018F7D8093C701DF91CF910895D7
:100CF00094609093C7018AE00E94F30486E691E035
:100D00000E9405058091C7018D7F8093C7018AE00D
:100D10000E94F3048091C70184FF09C081E00E9412
:100D20006D008091C7018F7E8093C701D9CF82E08B
:100D30000E946D008091C70180618093C701D0CF70
:100D400094609093C7018AE00E94F3048CE791E0DD
:100D50000E9405058091C70182608093C7018AE0E7
:100D60000E94F3048091C70184FF09C081E00E94C2
:100D70006D008091C7018F7E8093C701B1CF82E063
:100D80000E946D008091C70180618093C701A8CF48
:100D90008091DA01882349F08091DA01813031F0C5
:100DA0008091DA0181508093DA0108954598F8CF57
:100DB00097FB072E16F4009407D077FD09D00E9408
:100DC000F20607FC05D03EF4909581959F4F08955B
:100DD000709561957F4F0895EE0FFF1F0590F49178
:100DE000E02D0994AA1BBB1B51E107C0AA1FBB1F22
:100DF000A617B70710F0A61BB70B881F991F5A95A7
:100E0000A9F780959095BC01CD010895CF92DF920E
:100E1000EF92FF92CF93DF93CDB7DEB72A970FB64D
:100E2000F894DEBF0FBECDBF89879A87A985BA85A2
:100E30002D913D914D915C9129833A834B835C8345
:100E4000232B242B252B41F424E239ED4BE557E0ED
:100E500029833A834B835C8369817A818B819C816E
:100E60002DE133EF41E050E00E947E0769017A01F5
:100E7000A7EAB1E49B01AC010E949D0769837A83D4
:100E80008B839C83ACEEB4EFA70196010E94AB0765
:100E90009B01AC0189819A81AB81BC81820F931F38
:100EA000A41FB51FB7FF03C00197A109B048E9858A
:100EB000FA8580839183A283B3839F772A960FB6A6
:100EC000F894DEBF0FBECDBFDF91CF91FF90EF90C2
:100ED000DF90CF9008950E940607089580E091E08A
:100EE0000E9406070895B0E0A0E08093000190936F
:100EF0000101A0930201B09303010895052E97FB11
:100F00001EF400940E94950757FD07D00E94B00779
:100F100007FC03D04EF40C949507509540953095FE
:100F200021953F4F4F4F5F4F089590958095709555
:100F300061957F4F8F4F9F4F08950E94D207A59FC5
:100F4000900DB49F900DA49F800D911D11240895C4
:100F5000B7FF0C949D070E949D07821B930B089579
:100F6000A1E21A2EAA1BBB1BFD010DC0AA1FBB1FAD
:100F7000EE1FFF1FA217B307E407F50720F0A21B1F
:100F8000B30BE40BF50B661F771F881F991F1A948C
:100F900069F760957095809590959B01AC01BD01B6
:100FA000CF010895A29FB001B39FC001A39F700D10
:100FB000811D1124911DB29F700D811D1124911D61
:060FC0000895F894FFCF34
:100FC6000100000054656D70616E7A656967652081
:100FD600756E64205775657266656C20566572205D
:100FE600302E340056657273696F6E20302E3400D1
:100FF6005775657266656C6D6F64653A00777565E1
:101006007266656C6E3A20004D756C7469706C6121
:101016007965723A200054454D50414E5A4549472C
:101026004520414E3A005775657266656C205370CF
:10103600657A69616C6D6F646520360057756572F7
:1010460066656C205370657A69616C6D6F646520A6
:02105600370061
:00000001FF
